{
	"contracts/RutaBasico.sol": {
		"RutaBasico": {
			"abi": [
				{
					"inputs": [],
					"stateMutability": "nonpayable",
					"type": "constructor"
				},
				{
					"inputs": [
						{
							"internalType": "uint256",
							"name": "n",
							"type": "uint256"
						}
					],
					"name": "esPrimo",
					"outputs": [
						{
							"internalType": "bool",
							"name": "",
							"type": "bool"
						}
					],
					"stateMutability": "pure",
					"type": "function"
				},
				{
					"inputs": [],
					"name": "getNombre",
					"outputs": [
						{
							"internalType": "string",
							"name": "",
							"type": "string"
						}
					],
					"stateMutability": "view",
					"type": "function"
				},
				{
					"inputs": [],
					"name": "getPropietario",
					"outputs": [
						{
							"internalType": "address",
							"name": "",
							"type": "address"
						}
					],
					"stateMutability": "view",
					"type": "function"
				},
				{
					"inputs": [
						{
							"internalType": "string",
							"name": "_nombre",
							"type": "string"
						}
					],
					"name": "setNombre",
					"outputs": [],
					"stateMutability": "nonpayable",
					"type": "function"
				}
			],
			"devdoc": {
				"kind": "dev",
				"methods": {},
				"version": 1
			},
			"evm": {
				"assembly": "    /* \"contracts/RutaBasico.sol\":68:894  contract RutaBasico {... */\n  mstore(0x40, 0x80)\n    /* \"contracts/RutaBasico.sol\":151:216  constructor() {... */\n  callvalue\n  dup1\n  iszero\n  tag_1\n  jumpi\n  revert(0x00, 0x00)\ntag_1:\n  pop\n    /* \"contracts/RutaBasico.sol\":189:199  msg.sender */\n  caller\n    /* \"contracts/RutaBasico.sol\":175:186  propietario */\n  0x00\n  0x00\n    /* \"contracts/RutaBasico.sol\":175:199  propietario = msg.sender */\n  0x0100\n  exp\n  dup2\n  sload\n  dup2\n  0xffffffffffffffffffffffffffffffffffffffff\n  mul\n  not\n  and\n  swap1\n  dup4\n  0xffffffffffffffffffffffffffffffffffffffff\n  and\n  mul\n  or\n  swap1\n  sstore\n  pop\n    /* \"contracts/RutaBasico.sol\":68:894  contract RutaBasico {... */\n  dataSize(sub_0)\n  dup1\n  dataOffset(sub_0)\n  0x00\n  codecopy\n  0x00\n  return\nstop\n\nsub_0: assembly {\n        /* \"contracts/RutaBasico.sol\":68:894  contract RutaBasico {... */\n      mstore(0x40, 0x80)\n      callvalue\n      dup1\n      iszero\n      tag_1\n      jumpi\n      revert(0x00, 0x00)\n    tag_1:\n      pop\n      jumpi(tag_2, lt(calldatasize, 0x04))\n      shr(0xe0, calldataload(0x00))\n      dup1\n      0x02736b\n      eq\n      tag_3\n      jumpi\n      dup1\n      0xc69dbb99\n      eq\n      tag_4\n      jumpi\n      dup1\n      0xc941202f\n      eq\n      tag_5\n      jumpi\n      dup1\n      0xd75cbf9b\n      eq\n      tag_6\n      jumpi\n    tag_2:\n      revert(0x00, 0x00)\n        /* \"contracts/RutaBasico.sol\":695:784  function setNombre(string memory _nombre) public  {... */\n    tag_3:\n      tag_7\n      0x04\n      dup1\n      calldatasize\n      sub\n      dup2\n      add\n      swap1\n      tag_8\n      swap2\n      swap1\n      tag_9\n      jump\t// in\n    tag_8:\n      tag_10\n      jump\t// in\n    tag_7:\n      stop\n        /* \"contracts/RutaBasico.sol\":224:317  function getPropietario() public view returns (address) {... */\n    tag_4:\n      tag_11\n      tag_12\n      jump\t// in\n    tag_11:\n      mload(0x40)\n      tag_13\n      swap2\n      swap1\n      tag_14\n      jump\t// in\n    tag_13:\n      mload(0x40)\n      dup1\n      swap2\n      sub\n      swap1\n      return\n        /* \"contracts/RutaBasico.sol\":325:653  function esPrimo(uint n) public pure returns (bool){... */\n    tag_5:\n      tag_15\n      0x04\n      dup1\n      calldatasize\n      sub\n      dup2\n      add\n      swap1\n      tag_16\n      swap2\n      swap1\n      tag_17\n      jump\t// in\n    tag_16:\n      tag_18\n      jump\t// in\n    tag_15:\n      mload(0x40)\n      tag_19\n      swap2\n      swap1\n      tag_20\n      jump\t// in\n    tag_19:\n      mload(0x40)\n      dup1\n      swap2\n      sub\n      swap1\n      return\n        /* \"contracts/RutaBasico.sol\":792:887  function getNombre() public  view  returns (string memory) {... */\n    tag_6:\n      tag_21\n      tag_22\n      jump\t// in\n    tag_21:\n      mload(0x40)\n      tag_23\n      swap2\n      swap1\n      tag_24\n      jump\t// in\n    tag_23:\n      mload(0x40)\n      dup1\n      swap2\n      sub\n      swap1\n      return\n        /* \"contracts/RutaBasico.sol\":695:784  function setNombre(string memory _nombre) public  {... */\n    tag_10:\n        /* \"contracts/RutaBasico.sol\":769:776  _nombre */\n      dup1\n        /* \"contracts/RutaBasico.sol\":756:766  testNombre */\n      0x01\n        /* \"contracts/RutaBasico.sol\":756:776  testNombre = _nombre */\n      swap1\n      dup2\n      tag_26\n      swap2\n      swap1\n      tag_27\n      jump\t// in\n    tag_26:\n      pop\n        /* \"contracts/RutaBasico.sol\":695:784  function setNombre(string memory _nombre) public  {... */\n      pop\n      jump\t// out\n        /* \"contracts/RutaBasico.sol\":224:317  function getPropietario() public view returns (address) {... */\n    tag_12:\n        /* \"contracts/RutaBasico.sol\":271:278  address */\n      0x00\n        /* \"contracts/RutaBasico.sol\":298:309  propietario */\n      0x00\n      0x00\n      swap1\n      sload\n      swap1\n      0x0100\n      exp\n      swap1\n      div\n      0xffffffffffffffffffffffffffffffffffffffff\n      and\n        /* \"contracts/RutaBasico.sol\":291:309  return propietario */\n      swap1\n      pop\n        /* \"contracts/RutaBasico.sol\":224:317  function getPropietario() public view returns (address) {... */\n      swap1\n      jump\t// out\n        /* \"contracts/RutaBasico.sol\":325:653  function esPrimo(uint n) public pure returns (bool){... */\n    tag_18:\n        /* \"contracts/RutaBasico.sol\":371:375  bool */\n      0x00\n        /* \"contracts/RutaBasico.sol\":399:400  1 */\n      0x01\n        /* \"contracts/RutaBasico.sol\":395:396  n */\n      dup3\n        /* \"contracts/RutaBasico.sol\":395:400  n > 1 */\n      gt\n        /* \"contracts/RutaBasico.sol\":387:429  require(n > 1, 'El Numero es mayor que 1') */\n      tag_30\n      jumpi\n      mload(0x40)\n      0x08c379a000000000000000000000000000000000000000000000000000000000\n      dup2\n      mstore\n      0x04\n      add\n      tag_31\n      swap1\n      tag_32\n      jump\t// in\n    tag_31:\n      mload(0x40)\n      dup1\n      swap2\n      sub\n      swap1\n      revert\n    tag_30:\n        /* \"contracts/RutaBasico.sol\":447:448  2 */\n      0x02\n        /* \"contracts/RutaBasico.sol\":444:445  n */\n      dup3\n        /* \"contracts/RutaBasico.sol\":444:448  n==2 */\n      sub\n        /* \"contracts/RutaBasico.sol\":440:487  if (n==2){... */\n      tag_33\n      jumpi\n        /* \"contracts/RutaBasico.sol\":471:475  true */\n      0x01\n        /* \"contracts/RutaBasico.sol\":464:475  return true */\n      swap1\n      pop\n      jump(tag_29)\n        /* \"contracts/RutaBasico.sol\":440:487  if (n==2){... */\n    tag_33:\n        /* \"contracts/RutaBasico.sol\":504:510  uint i */\n      0x00\n        /* \"contracts/RutaBasico.sol\":513:514  3 */\n      0x03\n        /* \"contracts/RutaBasico.sol\":504:514  uint i = 3 */\n      swap1\n      pop\n        /* \"contracts/RutaBasico.sol\":499:623  for (uint i = 3; i * i <= n; i += 2){... */\n    tag_34:\n        /* \"contracts/RutaBasico.sol\":525:526  n */\n      dup3\n        /* \"contracts/RutaBasico.sol\":520:521  i */\n      dup2\n        /* \"contracts/RutaBasico.sol\":516:517  i */\n      dup3\n        /* \"contracts/RutaBasico.sol\":516:521  i * i */\n      tag_37\n      swap2\n      swap1\n      tag_38\n      jump\t// in\n    tag_37:\n        /* \"contracts/RutaBasico.sol\":516:526  i * i <= n */\n      gt\n        /* \"contracts/RutaBasico.sol\":499:623  for (uint i = 3; i * i <= n; i += 2){... */\n      tag_35\n      jumpi\n        /* \"contracts/RutaBasico.sol\":563:564  0 */\n      0x00\n        /* \"contracts/RutaBasico.sol\":558:559  i */\n      dup2\n        /* \"contracts/RutaBasico.sol\":554:555  n */\n      dup5\n        /* \"contracts/RutaBasico.sol\":554:559  n % i */\n      tag_39\n      swap2\n      swap1\n      tag_40\n      jump\t// in\n    tag_39:\n        /* \"contracts/RutaBasico.sol\":554:564  n % i == 0 */\n      sub\n        /* \"contracts/RutaBasico.sol\":550:612  if (n % i == 0){... */\n      tag_41\n      jumpi\n        /* \"contracts/RutaBasico.sol\":591:596  false */\n      0x00\n        /* \"contracts/RutaBasico.sol\":584:596  return false */\n      swap2\n      pop\n      pop\n      jump(tag_29)\n        /* \"contracts/RutaBasico.sol\":550:612  if (n % i == 0){... */\n    tag_41:\n        /* \"contracts/RutaBasico.sol\":533:534  2 */\n      0x02\n        /* \"contracts/RutaBasico.sol\":528:534  i += 2 */\n      dup2\n      tag_42\n      swap2\n      swap1\n      tag_43\n      jump\t// in\n    tag_42:\n      swap1\n      pop\n        /* \"contracts/RutaBasico.sol\":499:623  for (uint i = 3; i * i <= n; i += 2){... */\n      jump(tag_34)\n    tag_35:\n      pop\n        /* \"contracts/RutaBasico.sol\":640:645  false */\n      0x00\n        /* \"contracts/RutaBasico.sol\":633:645  return false */\n      swap1\n      pop\n        /* \"contracts/RutaBasico.sol\":325:653  function esPrimo(uint n) public pure returns (bool){... */\n    tag_29:\n      swap2\n      swap1\n      pop\n      jump\t// out\n        /* \"contracts/RutaBasico.sol\":792:887  function getNombre() public  view  returns (string memory) {... */\n    tag_22:\n        /* \"contracts/RutaBasico.sol\":836:849  string memory */\n      0x60\n        /* \"contracts/RutaBasico.sol\":869:879  testNombre */\n      0x01\n        /* \"contracts/RutaBasico.sol\":862:879  return testNombre */\n      dup1\n      sload\n      tag_45\n      swap1\n      tag_46\n      jump\t// in\n    tag_45:\n      dup1\n      0x1f\n      add\n      0x20\n      dup1\n      swap2\n      div\n      mul\n      0x20\n      add\n      mload(0x40)\n      swap1\n      dup2\n      add\n      0x40\n      mstore\n      dup1\n      swap3\n      swap2\n      swap1\n      dup2\n      dup2\n      mstore\n      0x20\n      add\n      dup3\n      dup1\n      sload\n      tag_47\n      swap1\n      tag_46\n      jump\t// in\n    tag_47:\n      dup1\n      iszero\n      tag_48\n      jumpi\n      dup1\n      0x1f\n      lt\n      tag_49\n      jumpi\n      0x0100\n      dup1\n      dup4\n      sload\n      div\n      mul\n      dup4\n      mstore\n      swap2\n      0x20\n      add\n      swap2\n      jump(tag_48)\n    tag_49:\n      dup3\n      add\n      swap2\n      swap1\n      0x00\n      mstore\n      keccak256(0x00, 0x20)\n      swap1\n    tag_50:\n      dup2\n      sload\n      dup2\n      mstore\n      swap1\n      0x01\n      add\n      swap1\n      0x20\n      add\n      dup1\n      dup4\n      gt\n      tag_50\n      jumpi\n      dup3\n      swap1\n      sub\n      0x1f\n      and\n      dup3\n      add\n      swap2\n    tag_48:\n      pop\n      pop\n      pop\n      pop\n      pop\n      swap1\n      pop\n        /* \"contracts/RutaBasico.sol\":792:887  function getNombre() public  view  returns (string memory) {... */\n      swap1\n      jump\t// out\n        /* \"#utility.yul\":7:82   */\n    tag_51:\n        /* \"#utility.yul\":40:46   */\n      0x00\n        /* \"#utility.yul\":73:75   */\n      0x40\n        /* \"#utility.yul\":67:76   */\n      mload\n        /* \"#utility.yul\":57:76   */\n      swap1\n      pop\n        /* \"#utility.yul\":7:82   */\n      swap1\n      jump\t// out\n        /* \"#utility.yul\":88:205   */\n    tag_52:\n        /* \"#utility.yul\":197:198   */\n      0x00\n        /* \"#utility.yul\":194:195   */\n      0x00\n        /* \"#utility.yul\":187:199   */\n      revert\n        /* \"#utility.yul\":211:328   */\n    tag_53:\n        /* \"#utility.yul\":320:321   */\n      0x00\n        /* \"#utility.yul\":317:318   */\n      0x00\n        /* \"#utility.yul\":310:322   */\n      revert\n        /* \"#utility.yul\":334:451   */\n    tag_54:\n        /* \"#utility.yul\":443:444   */\n      0x00\n        /* \"#utility.yul\":440:441   */\n      0x00\n        /* \"#utility.yul\":433:445   */\n      revert\n        /* \"#utility.yul\":457:574   */\n    tag_55:\n        /* \"#utility.yul\":566:567   */\n      0x00\n        /* \"#utility.yul\":563:564   */\n      0x00\n        /* \"#utility.yul\":556:568   */\n      revert\n        /* \"#utility.yul\":580:682   */\n    tag_56:\n        /* \"#utility.yul\":621:627   */\n      0x00\n        /* \"#utility.yul\":672:674   */\n      0x1f\n        /* \"#utility.yul\":668:675   */\n      not\n        /* \"#utility.yul\":663:665   */\n      0x1f\n        /* \"#utility.yul\":656:661   */\n      dup4\n        /* \"#utility.yul\":652:666   */\n      add\n        /* \"#utility.yul\":648:676   */\n      and\n        /* \"#utility.yul\":638:676   */\n      swap1\n      pop\n        /* \"#utility.yul\":580:682   */\n      swap2\n      swap1\n      pop\n      jump\t// out\n        /* \"#utility.yul\":688:868   */\n    tag_57:\n        /* \"#utility.yul\":736:813   */\n      0x4e487b7100000000000000000000000000000000000000000000000000000000\n        /* \"#utility.yul\":733:734   */\n      0x00\n        /* \"#utility.yul\":726:814   */\n      mstore\n        /* \"#utility.yul\":833:837   */\n      0x41\n        /* \"#utility.yul\":830:831   */\n      0x04\n        /* \"#utility.yul\":823:838   */\n      mstore\n        /* \"#utility.yul\":857:861   */\n      0x24\n        /* \"#utility.yul\":854:855   */\n      0x00\n        /* \"#utility.yul\":847:862   */\n      revert\n        /* \"#utility.yul\":874:1155   */\n    tag_58:\n        /* \"#utility.yul\":957:984   */\n      tag_105\n        /* \"#utility.yul\":979:983   */\n      dup3\n        /* \"#utility.yul\":957:984   */\n      tag_56\n      jump\t// in\n    tag_105:\n        /* \"#utility.yul\":949:955   */\n      dup2\n        /* \"#utility.yul\":945:985   */\n      add\n        /* \"#utility.yul\":1087:1093   */\n      dup2\n        /* \"#utility.yul\":1075:1085   */\n      dup2\n        /* \"#utility.yul\":1072:1094   */\n      lt\n        /* \"#utility.yul\":1051:1069   */\n      0xffffffffffffffff\n        /* \"#utility.yul\":1039:1049   */\n      dup3\n        /* \"#utility.yul\":1036:1070   */\n      gt\n        /* \"#utility.yul\":1033:1095   */\n      or\n        /* \"#utility.yul\":1030:1118   */\n      iszero\n      tag_106\n      jumpi\n        /* \"#utility.yul\":1098:1116   */\n      tag_107\n      tag_57\n      jump\t// in\n    tag_107:\n        /* \"#utility.yul\":1030:1118   */\n    tag_106:\n        /* \"#utility.yul\":1138:1148   */\n      dup1\n        /* \"#utility.yul\":1134:1136   */\n      0x40\n        /* \"#utility.yul\":1127:1149   */\n      mstore\n        /* \"#utility.yul\":917:1155   */\n      pop\n        /* \"#utility.yul\":874:1155   */\n      pop\n      pop\n      jump\t// out\n        /* \"#utility.yul\":1161:1290   */\n    tag_59:\n        /* \"#utility.yul\":1195:1201   */\n      0x00\n        /* \"#utility.yul\":1222:1242   */\n      tag_109\n      tag_51\n      jump\t// in\n    tag_109:\n        /* \"#utility.yul\":1212:1242   */\n      swap1\n      pop\n        /* \"#utility.yul\":1251:1284   */\n      tag_110\n        /* \"#utility.yul\":1279:1283   */\n      dup3\n        /* \"#utility.yul\":1271:1277   */\n      dup3\n        /* \"#utility.yul\":1251:1284   */\n      tag_58\n      jump\t// in\n    tag_110:\n        /* \"#utility.yul\":1161:1290   */\n      swap2\n      swap1\n      pop\n      jump\t// out\n        /* \"#utility.yul\":1296:1604   */\n    tag_60:\n        /* \"#utility.yul\":1358:1362   */\n      0x00\n        /* \"#utility.yul\":1448:1466   */\n      0xffffffffffffffff\n        /* \"#utility.yul\":1440:1446   */\n      dup3\n        /* \"#utility.yul\":1437:1467   */\n      gt\n        /* \"#utility.yul\":1434:1490   */\n      iszero\n      tag_112\n      jumpi\n        /* \"#utility.yul\":1470:1488   */\n      tag_113\n      tag_57\n      jump\t// in\n    tag_113:\n        /* \"#utility.yul\":1434:1490   */\n    tag_112:\n        /* \"#utility.yul\":1508:1537   */\n      tag_114\n        /* \"#utility.yul\":1530:1536   */\n      dup3\n        /* \"#utility.yul\":1508:1537   */\n      tag_56\n      jump\t// in\n    tag_114:\n        /* \"#utility.yul\":1500:1537   */\n      swap1\n      pop\n        /* \"#utility.yul\":1592:1596   */\n      0x20\n        /* \"#utility.yul\":1586:1590   */\n      dup2\n        /* \"#utility.yul\":1582:1597   */\n      add\n        /* \"#utility.yul\":1574:1597   */\n      swap1\n      pop\n        /* \"#utility.yul\":1296:1604   */\n      swap2\n      swap1\n      pop\n      jump\t// out\n        /* \"#utility.yul\":1610:1758   */\n    tag_61:\n        /* \"#utility.yul\":1708:1714   */\n      dup3\n        /* \"#utility.yul\":1703:1706   */\n      dup2\n        /* \"#utility.yul\":1698:1701   */\n      dup4\n        /* \"#utility.yul\":1685:1715   */\n      calldatacopy\n        /* \"#utility.yul\":1749:1750   */\n      0x00\n        /* \"#utility.yul\":1740:1746   */\n      dup4\n        /* \"#utility.yul\":1735:1738   */\n      dup4\n        /* \"#utility.yul\":1731:1747   */\n      add\n        /* \"#utility.yul\":1724:1751   */\n      mstore\n        /* \"#utility.yul\":1610:1758   */\n      pop\n      pop\n      pop\n      jump\t// out\n        /* \"#utility.yul\":1764:2189   */\n    tag_62:\n        /* \"#utility.yul\":1842:1847   */\n      0x00\n        /* \"#utility.yul\":1867:1933   */\n      tag_117\n        /* \"#utility.yul\":1883:1932   */\n      tag_118\n        /* \"#utility.yul\":1925:1931   */\n      dup5\n        /* \"#utility.yul\":1883:1932   */\n      tag_60\n      jump\t// in\n    tag_118:\n        /* \"#utility.yul\":1867:1933   */\n      tag_59\n      jump\t// in\n    tag_117:\n        /* \"#utility.yul\":1858:1933   */\n      swap1\n      pop\n        /* \"#utility.yul\":1956:1962   */\n      dup3\n        /* \"#utility.yul\":1949:1954   */\n      dup2\n        /* \"#utility.yul\":1942:1963   */\n      mstore\n        /* \"#utility.yul\":1994:1998   */\n      0x20\n        /* \"#utility.yul\":1987:1992   */\n      dup2\n        /* \"#utility.yul\":1983:1999   */\n      add\n        /* \"#utility.yul\":2032:2035   */\n      dup5\n        /* \"#utility.yul\":2023:2029   */\n      dup5\n        /* \"#utility.yul\":2018:2021   */\n      dup5\n        /* \"#utility.yul\":2014:2030   */\n      add\n        /* \"#utility.yul\":2011:2036   */\n      gt\n        /* \"#utility.yul\":2008:2120   */\n      iszero\n      tag_119\n      jumpi\n        /* \"#utility.yul\":2039:2118   */\n      tag_120\n      tag_55\n      jump\t// in\n    tag_120:\n        /* \"#utility.yul\":2008:2120   */\n    tag_119:\n        /* \"#utility.yul\":2129:2183   */\n      tag_121\n        /* \"#utility.yul\":2176:2182   */\n      dup5\n        /* \"#utility.yul\":2171:2174   */\n      dup3\n        /* \"#utility.yul\":2166:2169   */\n      dup6\n        /* \"#utility.yul\":2129:2183   */\n      tag_61\n      jump\t// in\n    tag_121:\n        /* \"#utility.yul\":1848:2189   */\n      pop\n        /* \"#utility.yul\":1764:2189   */\n      swap4\n      swap3\n      pop\n      pop\n      pop\n      jump\t// out\n        /* \"#utility.yul\":2209:2549   */\n    tag_63:\n        /* \"#utility.yul\":2265:2270   */\n      0x00\n        /* \"#utility.yul\":2314:2317   */\n      dup3\n        /* \"#utility.yul\":2307:2311   */\n      0x1f\n        /* \"#utility.yul\":2299:2305   */\n      dup4\n        /* \"#utility.yul\":2295:2312   */\n      add\n        /* \"#utility.yul\":2291:2318   */\n      slt\n        /* \"#utility.yul\":2281:2403   */\n      tag_123\n      jumpi\n        /* \"#utility.yul\":2322:2401   */\n      tag_124\n      tag_54\n      jump\t// in\n    tag_124:\n        /* \"#utility.yul\":2281:2403   */\n    tag_123:\n        /* \"#utility.yul\":2439:2445   */\n      dup2\n        /* \"#utility.yul\":2426:2446   */\n      calldataload\n        /* \"#utility.yul\":2464:2543   */\n      tag_125\n        /* \"#utility.yul\":2539:2542   */\n      dup5\n        /* \"#utility.yul\":2531:2537   */\n      dup3\n        /* \"#utility.yul\":2524:2528   */\n      0x20\n        /* \"#utility.yul\":2516:2522   */\n      dup7\n        /* \"#utility.yul\":2512:2529   */\n      add\n        /* \"#utility.yul\":2464:2543   */\n      tag_62\n      jump\t// in\n    tag_125:\n        /* \"#utility.yul\":2455:2543   */\n      swap2\n      pop\n        /* \"#utility.yul\":2271:2549   */\n      pop\n        /* \"#utility.yul\":2209:2549   */\n      swap3\n      swap2\n      pop\n      pop\n      jump\t// out\n        /* \"#utility.yul\":2555:3064   */\n    tag_9:\n        /* \"#utility.yul\":2624:2630   */\n      0x00\n        /* \"#utility.yul\":2673:2675   */\n      0x20\n        /* \"#utility.yul\":2661:2670   */\n      dup3\n        /* \"#utility.yul\":2652:2659   */\n      dup5\n        /* \"#utility.yul\":2648:2671   */\n      sub\n        /* \"#utility.yul\":2644:2676   */\n      slt\n        /* \"#utility.yul\":2641:2760   */\n      iszero\n      tag_127\n      jumpi\n        /* \"#utility.yul\":2679:2758   */\n      tag_128\n      tag_52\n      jump\t// in\n    tag_128:\n        /* \"#utility.yul\":2641:2760   */\n    tag_127:\n        /* \"#utility.yul\":2827:2828   */\n      0x00\n        /* \"#utility.yul\":2816:2825   */\n      dup3\n        /* \"#utility.yul\":2812:2829   */\n      add\n        /* \"#utility.yul\":2799:2830   */\n      calldataload\n        /* \"#utility.yul\":2857:2875   */\n      0xffffffffffffffff\n        /* \"#utility.yul\":2849:2855   */\n      dup2\n        /* \"#utility.yul\":2846:2876   */\n      gt\n        /* \"#utility.yul\":2843:2960   */\n      iszero\n      tag_129\n      jumpi\n        /* \"#utility.yul\":2879:2958   */\n      tag_130\n      tag_53\n      jump\t// in\n    tag_130:\n        /* \"#utility.yul\":2843:2960   */\n    tag_129:\n        /* \"#utility.yul\":2984:3047   */\n      tag_131\n        /* \"#utility.yul\":3039:3046   */\n      dup5\n        /* \"#utility.yul\":3030:3036   */\n      dup3\n        /* \"#utility.yul\":3019:3028   */\n      dup6\n        /* \"#utility.yul\":3015:3037   */\n      add\n        /* \"#utility.yul\":2984:3047   */\n      tag_63\n      jump\t// in\n    tag_131:\n        /* \"#utility.yul\":2974:3047   */\n      swap2\n      pop\n        /* \"#utility.yul\":2770:3057   */\n      pop\n        /* \"#utility.yul\":2555:3064   */\n      swap3\n      swap2\n      pop\n      pop\n      jump\t// out\n        /* \"#utility.yul\":3070:3196   */\n    tag_64:\n        /* \"#utility.yul\":3107:3114   */\n      0x00\n        /* \"#utility.yul\":3147:3189   */\n      0xffffffffffffffffffffffffffffffffffffffff\n        /* \"#utility.yul\":3140:3145   */\n      dup3\n        /* \"#utility.yul\":3136:3190   */\n      and\n        /* \"#utility.yul\":3125:3190   */\n      swap1\n      pop\n        /* \"#utility.yul\":3070:3196   */\n      swap2\n      swap1\n      pop\n      jump\t// out\n        /* \"#utility.yul\":3202:3298   */\n    tag_65:\n        /* \"#utility.yul\":3239:3246   */\n      0x00\n        /* \"#utility.yul\":3268:3292   */\n      tag_134\n        /* \"#utility.yul\":3286:3291   */\n      dup3\n        /* \"#utility.yul\":3268:3292   */\n      tag_64\n      jump\t// in\n    tag_134:\n        /* \"#utility.yul\":3257:3292   */\n      swap1\n      pop\n        /* \"#utility.yul\":3202:3298   */\n      swap2\n      swap1\n      pop\n      jump\t// out\n        /* \"#utility.yul\":3304:3422   */\n    tag_66:\n        /* \"#utility.yul\":3391:3415   */\n      tag_136\n        /* \"#utility.yul\":3409:3414   */\n      dup2\n        /* \"#utility.yul\":3391:3415   */\n      tag_65\n      jump\t// in\n    tag_136:\n        /* \"#utility.yul\":3386:3389   */\n      dup3\n        /* \"#utility.yul\":3379:3416   */\n      mstore\n        /* \"#utility.yul\":3304:3422   */\n      pop\n      pop\n      jump\t// out\n        /* \"#utility.yul\":3428:3650   */\n    tag_14:\n        /* \"#utility.yul\":3521:3525   */\n      0x00\n        /* \"#utility.yul\":3559:3561   */\n      0x20\n        /* \"#utility.yul\":3548:3557   */\n      dup3\n        /* \"#utility.yul\":3544:3562   */\n      add\n        /* \"#utility.yul\":3536:3562   */\n      swap1\n      pop\n        /* \"#utility.yul\":3572:3643   */\n      tag_138\n        /* \"#utility.yul\":3640:3641   */\n      0x00\n        /* \"#utility.yul\":3629:3638   */\n      dup4\n        /* \"#utility.yul\":3625:3642   */\n      add\n        /* \"#utility.yul\":3616:3622   */\n      dup5\n        /* \"#utility.yul\":3572:3643   */\n      tag_66\n      jump\t// in\n    tag_138:\n        /* \"#utility.yul\":3428:3650   */\n      swap3\n      swap2\n      pop\n      pop\n      jump\t// out\n        /* \"#utility.yul\":3656:3733   */\n    tag_67:\n        /* \"#utility.yul\":3693:3700   */\n      0x00\n        /* \"#utility.yul\":3722:3727   */\n      dup2\n        /* \"#utility.yul\":3711:3727   */\n      swap1\n      pop\n        /* \"#utility.yul\":3656:3733   */\n      swap2\n      swap1\n      pop\n      jump\t// out\n        /* \"#utility.yul\":3739:3861   */\n    tag_68:\n        /* \"#utility.yul\":3812:3836   */\n      tag_141\n        /* \"#utility.yul\":3830:3835   */\n      dup2\n        /* \"#utility.yul\":3812:3836   */\n      tag_67\n      jump\t// in\n    tag_141:\n        /* \"#utility.yul\":3805:3810   */\n      dup2\n        /* \"#utility.yul\":3802:3837   */\n      eq\n        /* \"#utility.yul\":3792:3855   */\n      tag_142\n      jumpi\n        /* \"#utility.yul\":3851:3852   */\n      0x00\n        /* \"#utility.yul\":3848:3849   */\n      0x00\n        /* \"#utility.yul\":3841:3853   */\n      revert\n        /* \"#utility.yul\":3792:3855   */\n    tag_142:\n        /* \"#utility.yul\":3739:3861   */\n      pop\n      jump\t// out\n        /* \"#utility.yul\":3867:4006   */\n    tag_69:\n        /* \"#utility.yul\":3913:3918   */\n      0x00\n        /* \"#utility.yul\":3951:3957   */\n      dup2\n        /* \"#utility.yul\":3938:3958   */\n      calldataload\n        /* \"#utility.yul\":3929:3958   */\n      swap1\n      pop\n        /* \"#utility.yul\":3967:4000   */\n      tag_144\n        /* \"#utility.yul\":3994:3999   */\n      dup2\n        /* \"#utility.yul\":3967:4000   */\n      tag_68\n      jump\t// in\n    tag_144:\n        /* \"#utility.yul\":3867:4006   */\n      swap3\n      swap2\n      pop\n      pop\n      jump\t// out\n        /* \"#utility.yul\":4012:4341   */\n    tag_17:\n        /* \"#utility.yul\":4071:4077   */\n      0x00\n        /* \"#utility.yul\":4120:4122   */\n      0x20\n        /* \"#utility.yul\":4108:4117   */\n      dup3\n        /* \"#utility.yul\":4099:4106   */\n      dup5\n        /* \"#utility.yul\":4095:4118   */\n      sub\n        /* \"#utility.yul\":4091:4123   */\n      slt\n        /* \"#utility.yul\":4088:4207   */\n      iszero\n      tag_146\n      jumpi\n        /* \"#utility.yul\":4126:4205   */\n      tag_147\n      tag_52\n      jump\t// in\n    tag_147:\n        /* \"#utility.yul\":4088:4207   */\n    tag_146:\n        /* \"#utility.yul\":4246:4247   */\n      0x00\n        /* \"#utility.yul\":4271:4324   */\n      tag_148\n        /* \"#utility.yul\":4316:4323   */\n      dup5\n        /* \"#utility.yul\":4307:4313   */\n      dup3\n        /* \"#utility.yul\":4296:4305   */\n      dup6\n        /* \"#utility.yul\":4292:4314   */\n      add\n        /* \"#utility.yul\":4271:4324   */\n      tag_69\n      jump\t// in\n    tag_148:\n        /* \"#utility.yul\":4261:4324   */\n      swap2\n      pop\n        /* \"#utility.yul\":4217:4334   */\n      pop\n        /* \"#utility.yul\":4012:4341   */\n      swap3\n      swap2\n      pop\n      pop\n      jump\t// out\n        /* \"#utility.yul\":4347:4437   */\n    tag_70:\n        /* \"#utility.yul\":4381:4388   */\n      0x00\n        /* \"#utility.yul\":4424:4429   */\n      dup2\n        /* \"#utility.yul\":4417:4430   */\n      iszero\n        /* \"#utility.yul\":4410:4431   */\n      iszero\n        /* \"#utility.yul\":4399:4431   */\n      swap1\n      pop\n        /* \"#utility.yul\":4347:4437   */\n      swap2\n      swap1\n      pop\n      jump\t// out\n        /* \"#utility.yul\":4443:4552   */\n    tag_71:\n        /* \"#utility.yul\":4524:4545   */\n      tag_151\n        /* \"#utility.yul\":4539:4544   */\n      dup2\n        /* \"#utility.yul\":4524:4545   */\n      tag_70\n      jump\t// in\n    tag_151:\n        /* \"#utility.yul\":4519:4522   */\n      dup3\n        /* \"#utility.yul\":4512:4546   */\n      mstore\n        /* \"#utility.yul\":4443:4552   */\n      pop\n      pop\n      jump\t// out\n        /* \"#utility.yul\":4558:4768   */\n    tag_20:\n        /* \"#utility.yul\":4645:4649   */\n      0x00\n        /* \"#utility.yul\":4683:4685   */\n      0x20\n        /* \"#utility.yul\":4672:4681   */\n      dup3\n        /* \"#utility.yul\":4668:4686   */\n      add\n        /* \"#utility.yul\":4660:4686   */\n      swap1\n      pop\n        /* \"#utility.yul\":4696:4761   */\n      tag_153\n        /* \"#utility.yul\":4758:4759   */\n      0x00\n        /* \"#utility.yul\":4747:4756   */\n      dup4\n        /* \"#utility.yul\":4743:4760   */\n      add\n        /* \"#utility.yul\":4734:4740   */\n      dup5\n        /* \"#utility.yul\":4696:4761   */\n      tag_71\n      jump\t// in\n    tag_153:\n        /* \"#utility.yul\":4558:4768   */\n      swap3\n      swap2\n      pop\n      pop\n      jump\t// out\n        /* \"#utility.yul\":4774:4873   */\n    tag_72:\n        /* \"#utility.yul\":4826:4832   */\n      0x00\n        /* \"#utility.yul\":4860:4865   */\n      dup2\n        /* \"#utility.yul\":4854:4866   */\n      mload\n        /* \"#utility.yul\":4844:4866   */\n      swap1\n      pop\n        /* \"#utility.yul\":4774:4873   */\n      swap2\n      swap1\n      pop\n      jump\t// out\n        /* \"#utility.yul\":4879:5048   */\n    tag_73:\n        /* \"#utility.yul\":4963:4974   */\n      0x00\n        /* \"#utility.yul\":4997:5003   */\n      dup3\n        /* \"#utility.yul\":4992:4995   */\n      dup3\n        /* \"#utility.yul\":4985:5004   */\n      mstore\n        /* \"#utility.yul\":5037:5041   */\n      0x20\n        /* \"#utility.yul\":5032:5035   */\n      dup3\n        /* \"#utility.yul\":5028:5042   */\n      add\n        /* \"#utility.yul\":5013:5042   */\n      swap1\n      pop\n        /* \"#utility.yul\":4879:5048   */\n      swap3\n      swap2\n      pop\n      pop\n      jump\t// out\n        /* \"#utility.yul\":5054:5193   */\n    tag_74:\n        /* \"#utility.yul\":5143:5149   */\n      dup3\n        /* \"#utility.yul\":5138:5141   */\n      dup2\n        /* \"#utility.yul\":5133:5136   */\n      dup4\n        /* \"#utility.yul\":5127:5150   */\n      mcopy\n        /* \"#utility.yul\":5184:5185   */\n      0x00\n        /* \"#utility.yul\":5175:5181   */\n      dup4\n        /* \"#utility.yul\":5170:5173   */\n      dup4\n        /* \"#utility.yul\":5166:5182   */\n      add\n        /* \"#utility.yul\":5159:5186   */\n      mstore\n        /* \"#utility.yul\":5054:5193   */\n      pop\n      pop\n      pop\n      jump\t// out\n        /* \"#utility.yul\":5199:5576   */\n    tag_75:\n        /* \"#utility.yul\":5287:5290   */\n      0x00\n        /* \"#utility.yul\":5315:5354   */\n      tag_158\n        /* \"#utility.yul\":5348:5353   */\n      dup3\n        /* \"#utility.yul\":5315:5354   */\n      tag_72\n      jump\t// in\n    tag_158:\n        /* \"#utility.yul\":5370:5441   */\n      tag_159\n        /* \"#utility.yul\":5434:5440   */\n      dup2\n        /* \"#utility.yul\":5429:5432   */\n      dup6\n        /* \"#utility.yul\":5370:5441   */\n      tag_73\n      jump\t// in\n    tag_159:\n        /* \"#utility.yul\":5363:5441   */\n      swap4\n      pop\n        /* \"#utility.yul\":5450:5515   */\n      tag_160\n        /* \"#utility.yul\":5508:5514   */\n      dup2\n        /* \"#utility.yul\":5503:5506   */\n      dup6\n        /* \"#utility.yul\":5496:5500   */\n      0x20\n        /* \"#utility.yul\":5489:5494   */\n      dup7\n        /* \"#utility.yul\":5485:5501   */\n      add\n        /* \"#utility.yul\":5450:5515   */\n      tag_74\n      jump\t// in\n    tag_160:\n        /* \"#utility.yul\":5540:5569   */\n      tag_161\n        /* \"#utility.yul\":5562:5568   */\n      dup2\n        /* \"#utility.yul\":5540:5569   */\n      tag_56\n      jump\t// in\n    tag_161:\n        /* \"#utility.yul\":5535:5538   */\n      dup5\n        /* \"#utility.yul\":5531:5570   */\n      add\n        /* \"#utility.yul\":5524:5570   */\n      swap2\n      pop\n        /* \"#utility.yul\":5291:5576   */\n      pop\n        /* \"#utility.yul\":5199:5576   */\n      swap3\n      swap2\n      pop\n      pop\n      jump\t// out\n        /* \"#utility.yul\":5582:5895   */\n    tag_24:\n        /* \"#utility.yul\":5695:5699   */\n      0x00\n        /* \"#utility.yul\":5733:5735   */\n      0x20\n        /* \"#utility.yul\":5722:5731   */\n      dup3\n        /* \"#utility.yul\":5718:5736   */\n      add\n        /* \"#utility.yul\":5710:5736   */\n      swap1\n      pop\n        /* \"#utility.yul\":5782:5791   */\n      dup2\n        /* \"#utility.yul\":5776:5780   */\n      dup2\n        /* \"#utility.yul\":5772:5792   */\n      sub\n        /* \"#utility.yul\":5768:5769   */\n      0x00\n        /* \"#utility.yul\":5757:5766   */\n      dup4\n        /* \"#utility.yul\":5753:5770   */\n      add\n        /* \"#utility.yul\":5746:5793   */\n      mstore\n        /* \"#utility.yul\":5810:5888   */\n      tag_163\n        /* \"#utility.yul\":5883:5887   */\n      dup2\n        /* \"#utility.yul\":5874:5880   */\n      dup5\n        /* \"#utility.yul\":5810:5888   */\n      tag_75\n      jump\t// in\n    tag_163:\n        /* \"#utility.yul\":5802:5888   */\n      swap1\n      pop\n        /* \"#utility.yul\":5582:5895   */\n      swap3\n      swap2\n      pop\n      pop\n      jump\t// out\n        /* \"#utility.yul\":5901:6081   */\n    tag_76:\n        /* \"#utility.yul\":5949:6026   */\n      0x4e487b7100000000000000000000000000000000000000000000000000000000\n        /* \"#utility.yul\":5946:5947   */\n      0x00\n        /* \"#utility.yul\":5939:6027   */\n      mstore\n        /* \"#utility.yul\":6046:6050   */\n      0x22\n        /* \"#utility.yul\":6043:6044   */\n      0x04\n        /* \"#utility.yul\":6036:6051   */\n      mstore\n        /* \"#utility.yul\":6070:6074   */\n      0x24\n        /* \"#utility.yul\":6067:6068   */\n      0x00\n        /* \"#utility.yul\":6060:6075   */\n      revert\n        /* \"#utility.yul\":6087:6407   */\n    tag_46:\n        /* \"#utility.yul\":6131:6137   */\n      0x00\n        /* \"#utility.yul\":6168:6169   */\n      0x02\n        /* \"#utility.yul\":6162:6166   */\n      dup3\n        /* \"#utility.yul\":6158:6170   */\n      div\n        /* \"#utility.yul\":6148:6170   */\n      swap1\n      pop\n        /* \"#utility.yul\":6215:6216   */\n      0x01\n        /* \"#utility.yul\":6209:6213   */\n      dup3\n        /* \"#utility.yul\":6205:6217   */\n      and\n        /* \"#utility.yul\":6236:6254   */\n      dup1\n        /* \"#utility.yul\":6226:6307   */\n      tag_166\n      jumpi\n        /* \"#utility.yul\":6292:6296   */\n      0x7f\n        /* \"#utility.yul\":6284:6290   */\n      dup3\n        /* \"#utility.yul\":6280:6297   */\n      and\n        /* \"#utility.yul\":6270:6297   */\n      swap2\n      pop\n        /* \"#utility.yul\":6226:6307   */\n    tag_166:\n        /* \"#utility.yul\":6354:6356   */\n      0x20\n        /* \"#utility.yul\":6346:6352   */\n      dup3\n        /* \"#utility.yul\":6343:6357   */\n      lt\n        /* \"#utility.yul\":6323:6341   */\n      dup2\n        /* \"#utility.yul\":6320:6358   */\n      sub\n        /* \"#utility.yul\":6317:6401   */\n      tag_167\n      jumpi\n        /* \"#utility.yul\":6373:6391   */\n      tag_168\n      tag_76\n      jump\t// in\n    tag_168:\n        /* \"#utility.yul\":6317:6401   */\n    tag_167:\n        /* \"#utility.yul\":6138:6407   */\n      pop\n        /* \"#utility.yul\":6087:6407   */\n      swap2\n      swap1\n      pop\n      jump\t// out\n        /* \"#utility.yul\":6413:6554   */\n    tag_77:\n        /* \"#utility.yul\":6462:6466   */\n      0x00\n        /* \"#utility.yul\":6485:6488   */\n      dup2\n        /* \"#utility.yul\":6477:6488   */\n      swap1\n      pop\n        /* \"#utility.yul\":6508:6511   */\n      dup2\n        /* \"#utility.yul\":6505:6506   */\n      0x00\n        /* \"#utility.yul\":6498:6512   */\n      mstore\n        /* \"#utility.yul\":6542:6546   */\n      0x20\n        /* \"#utility.yul\":6539:6540   */\n      0x00\n        /* \"#utility.yul\":6529:6547   */\n      keccak256\n        /* \"#utility.yul\":6521:6547   */\n      swap1\n      pop\n        /* \"#utility.yul\":6413:6554   */\n      swap2\n      swap1\n      pop\n      jump\t// out\n        /* \"#utility.yul\":6560:6653   */\n    tag_78:\n        /* \"#utility.yul\":6597:6603   */\n      0x00\n        /* \"#utility.yul\":6644:6646   */\n      0x20\n        /* \"#utility.yul\":6639:6641   */\n      0x1f\n        /* \"#utility.yul\":6632:6637   */\n      dup4\n        /* \"#utility.yul\":6628:6642   */\n      add\n        /* \"#utility.yul\":6624:6647   */\n      div\n        /* \"#utility.yul\":6614:6647   */\n      swap1\n      pop\n        /* \"#utility.yul\":6560:6653   */\n      swap2\n      swap1\n      pop\n      jump\t// out\n        /* \"#utility.yul\":6659:6766   */\n    tag_79:\n        /* \"#utility.yul\":6703:6711   */\n      0x00\n        /* \"#utility.yul\":6753:6758   */\n      dup3\n        /* \"#utility.yul\":6747:6751   */\n      dup3\n        /* \"#utility.yul\":6743:6759   */\n      shl\n        /* \"#utility.yul\":6722:6759   */\n      swap1\n      pop\n        /* \"#utility.yul\":6659:6766   */\n      swap3\n      swap2\n      pop\n      pop\n      jump\t// out\n        /* \"#utility.yul\":6772:7165   */\n    tag_80:\n        /* \"#utility.yul\":6841:6847   */\n      0x00\n        /* \"#utility.yul\":6891:6892   */\n      0x08\n        /* \"#utility.yul\":6879:6889   */\n      dup4\n        /* \"#utility.yul\":6875:6893   */\n      mul\n        /* \"#utility.yul\":6914:7011   */\n      tag_173\n        /* \"#utility.yul\":6944:7010   */\n      0xffffffffffffffffffffffffffffffffffffffffffffffffffffffffffffffff\n        /* \"#utility.yul\":6933:6942   */\n      dup3\n        /* \"#utility.yul\":6914:7011   */\n      tag_79\n      jump\t// in\n    tag_173:\n        /* \"#utility.yul\":7032:7071   */\n      tag_174\n        /* \"#utility.yul\":7062:7070   */\n      dup7\n        /* \"#utility.yul\":7051:7060   */\n      dup4\n        /* \"#utility.yul\":7032:7071   */\n      tag_79\n      jump\t// in\n    tag_174:\n        /* \"#utility.yul\":7020:7071   */\n      swap6\n      pop\n        /* \"#utility.yul\":7104:7108   */\n      dup1\n        /* \"#utility.yul\":7100:7109   */\n      not\n        /* \"#utility.yul\":7093:7098   */\n      dup5\n        /* \"#utility.yul\":7089:7110   */\n      and\n        /* \"#utility.yul\":7080:7110   */\n      swap4\n      pop\n        /* \"#utility.yul\":7153:7157   */\n      dup1\n        /* \"#utility.yul\":7143:7151   */\n      dup7\n        /* \"#utility.yul\":7139:7158   */\n      and\n        /* \"#utility.yul\":7132:7137   */\n      dup5\n        /* \"#utility.yul\":7129:7159   */\n      or\n        /* \"#utility.yul\":7119:7159   */\n      swap3\n      pop\n        /* \"#utility.yul\":6848:7165   */\n      pop\n      pop\n        /* \"#utility.yul\":6772:7165   */\n      swap4\n      swap3\n      pop\n      pop\n      pop\n      jump\t// out\n        /* \"#utility.yul\":7171:7231   */\n    tag_81:\n        /* \"#utility.yul\":7199:7202   */\n      0x00\n        /* \"#utility.yul\":7220:7225   */\n      dup2\n        /* \"#utility.yul\":7213:7225   */\n      swap1\n      pop\n        /* \"#utility.yul\":7171:7231   */\n      swap2\n      swap1\n      pop\n      jump\t// out\n        /* \"#utility.yul\":7237:7379   */\n    tag_82:\n        /* \"#utility.yul\":7287:7296   */\n      0x00\n        /* \"#utility.yul\":7320:7373   */\n      tag_177\n        /* \"#utility.yul\":7338:7372   */\n      tag_178\n        /* \"#utility.yul\":7347:7371   */\n      tag_179\n        /* \"#utility.yul\":7365:7370   */\n      dup5\n        /* \"#utility.yul\":7347:7371   */\n      tag_67\n      jump\t// in\n    tag_179:\n        /* \"#utility.yul\":7338:7372   */\n      tag_81\n      jump\t// in\n    tag_178:\n        /* \"#utility.yul\":7320:7373   */\n      tag_67\n      jump\t// in\n    tag_177:\n        /* \"#utility.yul\":7307:7373   */\n      swap1\n      pop\n        /* \"#utility.yul\":7237:7379   */\n      swap2\n      swap1\n      pop\n      jump\t// out\n        /* \"#utility.yul\":7385:7460   */\n    tag_83:\n        /* \"#utility.yul\":7428:7431   */\n      0x00\n        /* \"#utility.yul\":7449:7454   */\n      dup2\n        /* \"#utility.yul\":7442:7454   */\n      swap1\n      pop\n        /* \"#utility.yul\":7385:7460   */\n      swap2\n      swap1\n      pop\n      jump\t// out\n        /* \"#utility.yul\":7466:7735   */\n    tag_84:\n        /* \"#utility.yul\":7576:7615   */\n      tag_182\n        /* \"#utility.yul\":7607:7614   */\n      dup4\n        /* \"#utility.yul\":7576:7615   */\n      tag_82\n      jump\t// in\n    tag_182:\n        /* \"#utility.yul\":7637:7728   */\n      tag_183\n        /* \"#utility.yul\":7686:7727   */\n      tag_184\n        /* \"#utility.yul\":7710:7726   */\n      dup3\n        /* \"#utility.yul\":7686:7727   */\n      tag_83\n      jump\t// in\n    tag_184:\n        /* \"#utility.yul\":7678:7684   */\n      dup5\n        /* \"#utility.yul\":7671:7675   */\n      dup5\n        /* \"#utility.yul\":7665:7676   */\n      sload\n        /* \"#utility.yul\":7637:7728   */\n      tag_80\n      jump\t// in\n    tag_183:\n        /* \"#utility.yul\":7631:7635   */\n      dup3\n        /* \"#utility.yul\":7624:7729   */\n      sstore\n        /* \"#utility.yul\":7542:7735   */\n      pop\n        /* \"#utility.yul\":7466:7735   */\n      pop\n      pop\n      pop\n      jump\t// out\n        /* \"#utility.yul\":7741:7814   */\n    tag_85:\n        /* \"#utility.yul\":7786:7789   */\n      0x00\n        /* \"#utility.yul\":7807:7808   */\n      0x00\n        /* \"#utility.yul\":7800:7808   */\n      swap1\n      pop\n        /* \"#utility.yul\":7741:7814   */\n      swap1\n      jump\t// out\n        /* \"#utility.yul\":7820:8009   */\n    tag_86:\n        /* \"#utility.yul\":7897:7929   */\n      tag_187\n      tag_85\n      jump\t// in\n    tag_187:\n        /* \"#utility.yul\":7938:8003   */\n      tag_188\n        /* \"#utility.yul\":7996:8002   */\n      dup2\n        /* \"#utility.yul\":7988:7994   */\n      dup5\n        /* \"#utility.yul\":7982:7986   */\n      dup5\n        /* \"#utility.yul\":7938:8003   */\n      tag_84\n      jump\t// in\n    tag_188:\n        /* \"#utility.yul\":7873:8009   */\n      pop\n        /* \"#utility.yul\":7820:8009   */\n      pop\n      pop\n      jump\t// out\n        /* \"#utility.yul\":8015:8201   */\n    tag_87:\n        /* \"#utility.yul\":8075:8195   */\n    tag_190:\n        /* \"#utility.yul\":8092:8095   */\n      dup2\n        /* \"#utility.yul\":8085:8090   */\n      dup2\n        /* \"#utility.yul\":8082:8096   */\n      lt\n        /* \"#utility.yul\":8075:8195   */\n      iszero\n      tag_192\n      jumpi\n        /* \"#utility.yul\":8146:8185   */\n      tag_193\n        /* \"#utility.yul\":8183:8184   */\n      0x00\n        /* \"#utility.yul\":8176:8181   */\n      dup3\n        /* \"#utility.yul\":8146:8185   */\n      tag_86\n      jump\t// in\n    tag_193:\n        /* \"#utility.yul\":8119:8120   */\n      0x01\n        /* \"#utility.yul\":8112:8117   */\n      dup2\n        /* \"#utility.yul\":8108:8121   */\n      add\n        /* \"#utility.yul\":8099:8121   */\n      swap1\n      pop\n        /* \"#utility.yul\":8075:8195   */\n      jump(tag_190)\n    tag_192:\n        /* \"#utility.yul\":8015:8201   */\n      pop\n      pop\n      jump\t// out\n        /* \"#utility.yul\":8207:8750   */\n    tag_88:\n        /* \"#utility.yul\":8308:8310   */\n      0x1f\n        /* \"#utility.yul\":8303:8306   */\n      dup3\n        /* \"#utility.yul\":8300:8311   */\n      gt\n        /* \"#utility.yul\":8297:8743   */\n      iszero\n      tag_195\n      jumpi\n        /* \"#utility.yul\":8342:8380   */\n      tag_196\n        /* \"#utility.yul\":8374:8379   */\n      dup2\n        /* \"#utility.yul\":8342:8380   */\n      tag_77\n      jump\t// in\n    tag_196:\n        /* \"#utility.yul\":8426:8455   */\n      tag_197\n        /* \"#utility.yul\":8444:8454   */\n      dup5\n        /* \"#utility.yul\":8426:8455   */\n      tag_78\n      jump\t// in\n    tag_197:\n        /* \"#utility.yul\":8416:8424   */\n      dup2\n        /* \"#utility.yul\":8412:8456   */\n      add\n        /* \"#utility.yul\":8609:8611   */\n      0x20\n        /* \"#utility.yul\":8597:8607   */\n      dup6\n        /* \"#utility.yul\":8594:8612   */\n      lt\n        /* \"#utility.yul\":8591:8640   */\n      iszero\n      tag_198\n      jumpi\n        /* \"#utility.yul\":8630:8638   */\n      dup2\n        /* \"#utility.yul\":8615:8638   */\n      swap1\n      pop\n        /* \"#utility.yul\":8591:8640   */\n    tag_198:\n        /* \"#utility.yul\":8653:8733   */\n      tag_199\n        /* \"#utility.yul\":8709:8731   */\n      tag_200\n        /* \"#utility.yul\":8727:8730   */\n      dup6\n        /* \"#utility.yul\":8709:8731   */\n      tag_78\n      jump\t// in\n    tag_200:\n        /* \"#utility.yul\":8699:8707   */\n      dup4\n        /* \"#utility.yul\":8695:8732   */\n      add\n        /* \"#utility.yul\":8682:8693   */\n      dup3\n        /* \"#utility.yul\":8653:8733   */\n      tag_87\n      jump\t// in\n    tag_199:\n        /* \"#utility.yul\":8312:8743   */\n      pop\n      pop\n        /* \"#utility.yul\":8297:8743   */\n    tag_195:\n        /* \"#utility.yul\":8207:8750   */\n      pop\n      pop\n      pop\n      jump\t// out\n        /* \"#utility.yul\":8756:8873   */\n    tag_89:\n        /* \"#utility.yul\":8810:8818   */\n      0x00\n        /* \"#utility.yul\":8860:8865   */\n      dup3\n        /* \"#utility.yul\":8854:8858   */\n      dup3\n        /* \"#utility.yul\":8850:8866   */\n      shr\n        /* \"#utility.yul\":8829:8866   */\n      swap1\n      pop\n        /* \"#utility.yul\":8756:8873   */\n      swap3\n      swap2\n      pop\n      pop\n      jump\t// out\n        /* \"#utility.yul\":8879:9048   */\n    tag_90:\n        /* \"#utility.yul\":8923:8929   */\n      0x00\n        /* \"#utility.yul\":8956:9007   */\n      tag_203\n        /* \"#utility.yul\":9004:9005   */\n      0x00\n        /* \"#utility.yul\":9000:9006   */\n      not\n        /* \"#utility.yul\":8992:8997   */\n      dup5\n        /* \"#utility.yul\":8989:8990   */\n      0x08\n        /* \"#utility.yul\":8985:8998   */\n      mul\n        /* \"#utility.yul\":8956:9007   */\n      tag_89\n      jump\t// in\n    tag_203:\n        /* \"#utility.yul\":8952:9008   */\n      not\n        /* \"#utility.yul\":9037:9041   */\n      dup1\n        /* \"#utility.yul\":9031:9035   */\n      dup4\n        /* \"#utility.yul\":9027:9042   */\n      and\n        /* \"#utility.yul\":9017:9042   */\n      swap2\n      pop\n        /* \"#utility.yul\":8930:9048   */\n      pop\n        /* \"#utility.yul\":8879:9048   */\n      swap3\n      swap2\n      pop\n      pop\n      jump\t// out\n        /* \"#utility.yul\":9053:9348   */\n    tag_91:\n        /* \"#utility.yul\":9129:9133   */\n      0x00\n        /* \"#utility.yul\":9275:9304   */\n      tag_205\n        /* \"#utility.yul\":9300:9303   */\n      dup4\n        /* \"#utility.yul\":9294:9298   */\n      dup4\n        /* \"#utility.yul\":9275:9304   */\n      tag_90\n      jump\t// in\n    tag_205:\n        /* \"#utility.yul\":9267:9304   */\n      swap2\n      pop\n        /* \"#utility.yul\":9337:9340   */\n      dup3\n        /* \"#utility.yul\":9334:9335   */\n      0x02\n        /* \"#utility.yul\":9330:9341   */\n      mul\n        /* \"#utility.yul\":9324:9328   */\n      dup3\n        /* \"#utility.yul\":9321:9342   */\n      or\n        /* \"#utility.yul\":9313:9342   */\n      swap1\n      pop\n        /* \"#utility.yul\":9053:9348   */\n      swap3\n      swap2\n      pop\n      pop\n      jump\t// out\n        /* \"#utility.yul\":9353:10748   */\n    tag_27:\n        /* \"#utility.yul\":9470:9507   */\n      tag_207\n        /* \"#utility.yul\":9503:9506   */\n      dup3\n        /* \"#utility.yul\":9470:9507   */\n      tag_72\n      jump\t// in\n    tag_207:\n        /* \"#utility.yul\":9572:9590   */\n      0xffffffffffffffff\n        /* \"#utility.yul\":9564:9570   */\n      dup2\n        /* \"#utility.yul\":9561:9591   */\n      gt\n        /* \"#utility.yul\":9558:9614   */\n      iszero\n      tag_208\n      jumpi\n        /* \"#utility.yul\":9594:9612   */\n      tag_209\n      tag_57\n      jump\t// in\n    tag_209:\n        /* \"#utility.yul\":9558:9614   */\n    tag_208:\n        /* \"#utility.yul\":9638:9676   */\n      tag_210\n        /* \"#utility.yul\":9670:9674   */\n      dup3\n        /* \"#utility.yul\":9664:9675   */\n      sload\n        /* \"#utility.yul\":9638:9676   */\n      tag_46\n      jump\t// in\n    tag_210:\n        /* \"#utility.yul\":9723:9790   */\n      tag_211\n        /* \"#utility.yul\":9783:9789   */\n      dup3\n        /* \"#utility.yul\":9775:9781   */\n      dup3\n        /* \"#utility.yul\":9769:9773   */\n      dup6\n        /* \"#utility.yul\":9723:9790   */\n      tag_88\n      jump\t// in\n    tag_211:\n        /* \"#utility.yul\":9817:9818   */\n      0x00\n        /* \"#utility.yul\":9841:9845   */\n      0x20\n        /* \"#utility.yul\":9828:9845   */\n      swap1\n      pop\n        /* \"#utility.yul\":9873:9875   */\n      0x1f\n        /* \"#utility.yul\":9865:9871   */\n      dup4\n        /* \"#utility.yul\":9862:9876   */\n      gt\n        /* \"#utility.yul\":9890:9891   */\n      0x01\n        /* \"#utility.yul\":9885:10503   */\n      dup2\n      eq\n      tag_213\n      jumpi\n        /* \"#utility.yul\":10547:10548   */\n      0x00\n        /* \"#utility.yul\":10564:10570   */\n      dup5\n        /* \"#utility.yul\":10561:10638   */\n      iszero\n      tag_214\n      jumpi\n        /* \"#utility.yul\":10613:10622   */\n      dup3\n        /* \"#utility.yul\":10608:10611   */\n      dup8\n        /* \"#utility.yul\":10604:10623   */\n      add\n        /* \"#utility.yul\":10598:10624   */\n      mload\n        /* \"#utility.yul\":10589:10624   */\n      swap1\n      pop\n        /* \"#utility.yul\":10561:10638   */\n    tag_214:\n        /* \"#utility.yul\":10664:10731   */\n      tag_215\n        /* \"#utility.yul\":10724:10730   */\n      dup6\n        /* \"#utility.yul\":10717:10722   */\n      dup3\n        /* \"#utility.yul\":10664:10731   */\n      tag_91\n      jump\t// in\n    tag_215:\n        /* \"#utility.yul\":10658:10662   */\n      dup7\n        /* \"#utility.yul\":10651:10732   */\n      sstore\n        /* \"#utility.yul\":10520:10742   */\n      pop\n        /* \"#utility.yul\":9855:10742   */\n      jump(tag_212)\n        /* \"#utility.yul\":9885:10503   */\n    tag_213:\n        /* \"#utility.yul\":9937:9941   */\n      0x1f\n        /* \"#utility.yul\":9933:9942   */\n      not\n        /* \"#utility.yul\":9925:9931   */\n      dup5\n        /* \"#utility.yul\":9921:9943   */\n      and\n        /* \"#utility.yul\":9971:10008   */\n      tag_216\n        /* \"#utility.yul\":10003:10007   */\n      dup7\n        /* \"#utility.yul\":9971:10008   */\n      tag_77\n      jump\t// in\n    tag_216:\n        /* \"#utility.yul\":10030:10031   */\n      0x00\n        /* \"#utility.yul\":10044:10252   */\n    tag_217:\n        /* \"#utility.yul\":10058:10065   */\n      dup3\n        /* \"#utility.yul\":10055:10056   */\n      dup2\n        /* \"#utility.yul\":10052:10066   */\n      lt\n        /* \"#utility.yul\":10044:10252   */\n      iszero\n      tag_219\n      jumpi\n        /* \"#utility.yul\":10137:10146   */\n      dup5\n        /* \"#utility.yul\":10132:10135   */\n      dup10\n        /* \"#utility.yul\":10128:10147   */\n      add\n        /* \"#utility.yul\":10122:10148   */\n      mload\n        /* \"#utility.yul\":10114:10120   */\n      dup3\n        /* \"#utility.yul\":10107:10149   */\n      sstore\n        /* \"#utility.yul\":10188:10189   */\n      0x01\n        /* \"#utility.yul\":10180:10186   */\n      dup3\n        /* \"#utility.yul\":10176:10190   */\n      add\n        /* \"#utility.yul\":10166:10190   */\n      swap2\n      pop\n        /* \"#utility.yul\":10235:10237   */\n      0x20\n        /* \"#utility.yul\":10224:10233   */\n      dup6\n        /* \"#utility.yul\":10220:10238   */\n      add\n        /* \"#utility.yul\":10207:10238   */\n      swap5\n      pop\n        /* \"#utility.yul\":10081:10085   */\n      0x20\n        /* \"#utility.yul\":10078:10079   */\n      dup2\n        /* \"#utility.yul\":10074:10086   */\n      add\n        /* \"#utility.yul\":10069:10086   */\n      swap1\n      pop\n        /* \"#utility.yul\":10044:10252   */\n      jump(tag_217)\n    tag_219:\n        /* \"#utility.yul\":10280:10286   */\n      dup7\n        /* \"#utility.yul\":10271:10278   */\n      dup4\n        /* \"#utility.yul\":10268:10287   */\n      lt\n        /* \"#utility.yul\":10265:10444   */\n      iszero\n      tag_220\n      jumpi\n        /* \"#utility.yul\":10338:10347   */\n      dup5\n        /* \"#utility.yul\":10333:10336   */\n      dup10\n        /* \"#utility.yul\":10329:10348   */\n      add\n        /* \"#utility.yul\":10323:10349   */\n      mload\n        /* \"#utility.yul\":10381:10429   */\n      tag_221\n        /* \"#utility.yul\":10423:10427   */\n      0x1f\n        /* \"#utility.yul\":10415:10421   */\n      dup10\n        /* \"#utility.yul\":10411:10428   */\n      and\n        /* \"#utility.yul\":10400:10409   */\n      dup3\n        /* \"#utility.yul\":10381:10429   */\n      tag_90\n      jump\t// in\n    tag_221:\n        /* \"#utility.yul\":10373:10379   */\n      dup4\n        /* \"#utility.yul\":10366:10430   */\n      sstore\n        /* \"#utility.yul\":10288:10444   */\n      pop\n        /* \"#utility.yul\":10265:10444   */\n    tag_220:\n        /* \"#utility.yul\":10490:10491   */\n      0x01\n        /* \"#utility.yul\":10486:10487   */\n      0x02\n        /* \"#utility.yul\":10478:10484   */\n      dup9\n        /* \"#utility.yul\":10474:10488   */\n      mul\n        /* \"#utility.yul\":10470:10492   */\n      add\n        /* \"#utility.yul\":10464:10468   */\n      dup9\n        /* \"#utility.yul\":10457:10493   */\n      sstore\n        /* \"#utility.yul\":9892:10503   */\n      pop\n      pop\n      pop\n        /* \"#utility.yul\":9855:10742   */\n    tag_212:\n      pop\n        /* \"#utility.yul\":9445:10748   */\n      pop\n      pop\n      pop\n        /* \"#utility.yul\":9353:10748   */\n      pop\n      pop\n      jump\t// out\n        /* \"#utility.yul\":10754:10928   */\n    tag_92:\n        /* \"#utility.yul\":10894:10920   */\n      0x456c204e756d65726f206573206d61796f722071756520310000000000000000\n        /* \"#utility.yul\":10890:10891   */\n      0x00\n        /* \"#utility.yul\":10882:10888   */\n      dup3\n        /* \"#utility.yul\":10878:10892   */\n      add\n        /* \"#utility.yul\":10871:10921   */\n      mstore\n        /* \"#utility.yul\":10754:10928   */\n      pop\n      jump\t// out\n        /* \"#utility.yul\":10934:11300   */\n    tag_93:\n        /* \"#utility.yul\":11076:11079   */\n      0x00\n        /* \"#utility.yul\":11097:11164   */\n      tag_224\n        /* \"#utility.yul\":11161:11163   */\n      0x18\n        /* \"#utility.yul\":11156:11159   */\n      dup4\n        /* \"#utility.yul\":11097:11164   */\n      tag_73\n      jump\t// in\n    tag_224:\n        /* \"#utility.yul\":11090:11164   */\n      swap2\n      pop\n        /* \"#utility.yul\":11173:11266   */\n      tag_225\n        /* \"#utility.yul\":11262:11265   */\n      dup3\n        /* \"#utility.yul\":11173:11266   */\n      tag_92\n      jump\t// in\n    tag_225:\n        /* \"#utility.yul\":11291:11293   */\n      0x20\n        /* \"#utility.yul\":11286:11289   */\n      dup3\n        /* \"#utility.yul\":11282:11294   */\n      add\n        /* \"#utility.yul\":11275:11294   */\n      swap1\n      pop\n        /* \"#utility.yul\":10934:11300   */\n      swap2\n      swap1\n      pop\n      jump\t// out\n        /* \"#utility.yul\":11306:11725   */\n    tag_32:\n        /* \"#utility.yul\":11472:11476   */\n      0x00\n        /* \"#utility.yul\":11510:11512   */\n      0x20\n        /* \"#utility.yul\":11499:11508   */\n      dup3\n        /* \"#utility.yul\":11495:11513   */\n      add\n        /* \"#utility.yul\":11487:11513   */\n      swap1\n      pop\n        /* \"#utility.yul\":11559:11568   */\n      dup2\n        /* \"#utility.yul\":11553:11557   */\n      dup2\n        /* \"#utility.yul\":11549:11569   */\n      sub\n        /* \"#utility.yul\":11545:11546   */\n      0x00\n        /* \"#utility.yul\":11534:11543   */\n      dup4\n        /* \"#utility.yul\":11530:11547   */\n      add\n        /* \"#utility.yul\":11523:11570   */\n      mstore\n        /* \"#utility.yul\":11587:11718   */\n      tag_227\n        /* \"#utility.yul\":11713:11717   */\n      dup2\n        /* \"#utility.yul\":11587:11718   */\n      tag_93\n      jump\t// in\n    tag_227:\n        /* \"#utility.yul\":11579:11718   */\n      swap1\n      pop\n        /* \"#utility.yul\":11306:11725   */\n      swap2\n      swap1\n      pop\n      jump\t// out\n        /* \"#utility.yul\":11731:11911   */\n    tag_94:\n        /* \"#utility.yul\":11779:11856   */\n      0x4e487b7100000000000000000000000000000000000000000000000000000000\n        /* \"#utility.yul\":11776:11777   */\n      0x00\n        /* \"#utility.yul\":11769:11857   */\n      mstore\n        /* \"#utility.yul\":11876:11880   */\n      0x11\n        /* \"#utility.yul\":11873:11874   */\n      0x04\n        /* \"#utility.yul\":11866:11881   */\n      mstore\n        /* \"#utility.yul\":11900:11904   */\n      0x24\n        /* \"#utility.yul\":11897:11898   */\n      0x00\n        /* \"#utility.yul\":11890:11905   */\n      revert\n        /* \"#utility.yul\":11917:12327   */\n    tag_38:\n        /* \"#utility.yul\":11957:11964   */\n      0x00\n        /* \"#utility.yul\":11980:12000   */\n      tag_230\n        /* \"#utility.yul\":11998:11999   */\n      dup3\n        /* \"#utility.yul\":11980:12000   */\n      tag_67\n      jump\t// in\n    tag_230:\n        /* \"#utility.yul\":11975:12000   */\n      swap2\n      pop\n        /* \"#utility.yul\":12014:12034   */\n      tag_231\n        /* \"#utility.yul\":12032:12033   */\n      dup4\n        /* \"#utility.yul\":12014:12034   */\n      tag_67\n      jump\t// in\n    tag_231:\n        /* \"#utility.yul\":12009:12034   */\n      swap3\n      pop\n        /* \"#utility.yul\":12069:12070   */\n      dup3\n        /* \"#utility.yul\":12066:12067   */\n      dup3\n        /* \"#utility.yul\":12062:12071   */\n      mul\n        /* \"#utility.yul\":12091:12121   */\n      tag_232\n        /* \"#utility.yul\":12109:12120   */\n      dup2\n        /* \"#utility.yul\":12091:12121   */\n      tag_67\n      jump\t// in\n    tag_232:\n        /* \"#utility.yul\":12080:12121   */\n      swap2\n      pop\n        /* \"#utility.yul\":12270:12271   */\n      dup3\n        /* \"#utility.yul\":12261:12268   */\n      dup3\n        /* \"#utility.yul\":12257:12272   */\n      div\n        /* \"#utility.yul\":12254:12255   */\n      dup5\n        /* \"#utility.yul\":12251:12273   */\n      eq\n        /* \"#utility.yul\":12231:12232   */\n      dup4\n        /* \"#utility.yul\":12224:12233   */\n      iszero\n        /* \"#utility.yul\":12204:12287   */\n      or\n        /* \"#utility.yul\":12181:12320   */\n      tag_233\n      jumpi\n        /* \"#utility.yul\":12300:12318   */\n      tag_234\n      tag_94\n      jump\t// in\n    tag_234:\n        /* \"#utility.yul\":12181:12320   */\n    tag_233:\n        /* \"#utility.yul\":11965:12327   */\n      pop\n        /* \"#utility.yul\":11917:12327   */\n      swap3\n      swap2\n      pop\n      pop\n      jump\t// out\n        /* \"#utility.yul\":12333:12513   */\n    tag_95:\n        /* \"#utility.yul\":12381:12458   */\n      0x4e487b7100000000000000000000000000000000000000000000000000000000\n        /* \"#utility.yul\":12378:12379   */\n      0x00\n        /* \"#utility.yul\":12371:12459   */\n      mstore\n        /* \"#utility.yul\":12478:12482   */\n      0x12\n        /* \"#utility.yul\":12475:12476   */\n      0x04\n        /* \"#utility.yul\":12468:12483   */\n      mstore\n        /* \"#utility.yul\":12502:12506   */\n      0x24\n        /* \"#utility.yul\":12499:12500   */\n      0x00\n        /* \"#utility.yul\":12492:12507   */\n      revert\n        /* \"#utility.yul\":12519:12695   */\n    tag_40:\n        /* \"#utility.yul\":12551:12552   */\n      0x00\n        /* \"#utility.yul\":12568:12588   */\n      tag_237\n        /* \"#utility.yul\":12586:12587   */\n      dup3\n        /* \"#utility.yul\":12568:12588   */\n      tag_67\n      jump\t// in\n    tag_237:\n        /* \"#utility.yul\":12563:12588   */\n      swap2\n      pop\n        /* \"#utility.yul\":12602:12622   */\n      tag_238\n        /* \"#utility.yul\":12620:12621   */\n      dup4\n        /* \"#utility.yul\":12602:12622   */\n      tag_67\n      jump\t// in\n    tag_238:\n        /* \"#utility.yul\":12597:12622   */\n      swap3\n      pop\n        /* \"#utility.yul\":12641:12642   */\n      dup3\n        /* \"#utility.yul\":12631:12666   */\n      tag_239\n      jumpi\n        /* \"#utility.yul\":12646:12664   */\n      tag_240\n      tag_95\n      jump\t// in\n    tag_240:\n        /* \"#utility.yul\":12631:12666   */\n    tag_239:\n        /* \"#utility.yul\":12687:12688   */\n      dup3\n        /* \"#utility.yul\":12684:12685   */\n      dup3\n        /* \"#utility.yul\":12680:12689   */\n      mod\n        /* \"#utility.yul\":12675:12689   */\n      swap1\n      pop\n        /* \"#utility.yul\":12519:12695   */\n      swap3\n      swap2\n      pop\n      pop\n      jump\t// out\n        /* \"#utility.yul\":12701:12892   */\n    tag_43:\n        /* \"#utility.yul\":12741:12744   */\n      0x00\n        /* \"#utility.yul\":12760:12780   */\n      tag_242\n        /* \"#utility.yul\":12778:12779   */\n      dup3\n        /* \"#utility.yul\":12760:12780   */\n      tag_67\n      jump\t// in\n    tag_242:\n        /* \"#utility.yul\":12755:12780   */\n      swap2\n      pop\n        /* \"#utility.yul\":12794:12814   */\n      tag_243\n        /* \"#utility.yul\":12812:12813   */\n      dup4\n        /* \"#utility.yul\":12794:12814   */\n      tag_67\n      jump\t// in\n    tag_243:\n        /* \"#utility.yul\":12789:12814   */\n      swap3\n      pop\n        /* \"#utility.yul\":12837:12838   */\n      dup3\n        /* \"#utility.yul\":12834:12835   */\n      dup3\n        /* \"#utility.yul\":12830:12839   */\n      add\n        /* \"#utility.yul\":12823:12839   */\n      swap1\n      pop\n        /* \"#utility.yul\":12858:12861   */\n      dup1\n        /* \"#utility.yul\":12855:12856   */\n      dup3\n        /* \"#utility.yul\":12852:12862   */\n      gt\n        /* \"#utility.yul\":12849:12885   */\n      iszero\n      tag_244\n      jumpi\n        /* \"#utility.yul\":12865:12883   */\n      tag_245\n      tag_94\n      jump\t// in\n    tag_245:\n        /* \"#utility.yul\":12849:12885   */\n    tag_244:\n        /* \"#utility.yul\":12701:12892   */\n      swap3\n      swap2\n      pop\n      pop\n      jump\t// out\n\n    auxdata: 0xa2646970667358221220931f4e590a648bee4185a07ead47d9959348b57892e7d35ee020e95ad45e650564736f6c634300081e0033\n}\n",
				"bytecode": {
					"linkReferences": {},
					"object": "6080604052348015600e575f5ffd5b50335f5f6101000a81548173ffffffffffffffffffffffffffffffffffffffff021916908373ffffffffffffffffffffffffffffffffffffffff1602179055506109aa8061005b5f395ff3fe608060405234801561000f575f5ffd5b5060043610610049575f3560e01c806202736b1461004d578063c69dbb9914610069578063c941202f14610087578063d75cbf9b146100b7575b5f5ffd5b61006760048036038101906100629190610392565b6100d5565b005b6100716100e8565b60405161007e9190610418565b60405180910390f35b6100a1600480360381019061009c9190610464565b61010f565b6040516100ae91906104a9565b60405180910390f35b6100bf6101b5565b6040516100cc9190610522565b60405180910390f35b80600190816100e4919061073f565b5050565b5f5f5f9054906101000a900473ffffffffffffffffffffffffffffffffffffffff16905090565b5f60018211610153576040517f08c379a000000000000000000000000000000000000000000000000000000000815260040161014a90610858565b60405180910390fd5b6002820361016457600190506101b0565b5f600390505b82818261017791906108a3565b116101ab575f81846101899190610911565b03610197575f9150506101b0565b6002816101a49190610941565b905061016a565b505f90505b919050565b6060600180546101c49061056f565b80601f01602080910402602001604051908101604052809291908181526020018280546101f09061056f565b801561023b5780601f106102125761010080835404028352916020019161023b565b820191905f5260205f20905b81548152906001019060200180831161021e57829003601f168201915b5050505050905090565b5f604051905090565b5f5ffd5b5f5ffd5b5f5ffd5b5f5ffd5b5f601f19601f8301169050919050565b7f4e487b71000000000000000000000000000000000000000000000000000000005f52604160045260245ffd5b6102a48261025e565b810181811067ffffffffffffffff821117156102c3576102c261026e565b5b80604052505050565b5f6102d5610245565b90506102e1828261029b565b919050565b5f67ffffffffffffffff821115610300576102ff61026e565b5b6103098261025e565b9050602081019050919050565b828183375f83830152505050565b5f610336610331846102e6565b6102cc565b9050828152602081018484840111156103525761035161025a565b5b61035d848285610316565b509392505050565b5f82601f83011261037957610378610256565b5b8135610389848260208601610324565b91505092915050565b5f602082840312156103a7576103a661024e565b5b5f82013567ffffffffffffffff8111156103c4576103c3610252565b5b6103d084828501610365565b91505092915050565b5f73ffffffffffffffffffffffffffffffffffffffff82169050919050565b5f610402826103d9565b9050919050565b610412816103f8565b82525050565b5f60208201905061042b5f830184610409565b92915050565b5f819050919050565b61044381610431565b811461044d575f5ffd5b50565b5f8135905061045e8161043a565b92915050565b5f602082840312156104795761047861024e565b5b5f61048684828501610450565b91505092915050565b5f8115159050919050565b6104a38161048f565b82525050565b5f6020820190506104bc5f83018461049a565b92915050565b5f81519050919050565b5f82825260208201905092915050565b8281835e5f83830152505050565b5f6104f4826104c2565b6104fe81856104cc565b935061050e8185602086016104dc565b6105178161025e565b840191505092915050565b5f6020820190508181035f83015261053a81846104ea565b905092915050565b7f4e487b71000000000000000000000000000000000000000000000000000000005f52602260045260245ffd5b5f600282049050600182168061058657607f821691505b60208210810361059957610598610542565b5b50919050565b5f819050815f5260205f209050919050565b5f6020601f8301049050919050565b5f82821b905092915050565b5f600883026105fb7fffffffffffffffffffffffffffffffffffffffffffffffffffffffffffffffff826105c0565b61060586836105c0565b95508019841693508086168417925050509392505050565b5f819050919050565b5f61064061063b61063684610431565b61061d565b610431565b9050919050565b5f819050919050565b61065983610626565b61066d61066582610647565b8484546105cc565b825550505050565b5f5f905090565b610684610675565b61068f818484610650565b505050565b5b818110156106b2576106a75f8261067c565b600181019050610695565b5050565b601f8211156106f7576106c88161059f565b6106d1846105b1565b810160208510156106e0578190505b6106f46106ec856105b1565b830182610694565b50505b505050565b5f82821c905092915050565b5f6107175f19846008026106fc565b1980831691505092915050565b5f61072f8383610708565b9150826002028217905092915050565b610748826104c2565b67ffffffffffffffff8111156107615761076061026e565b5b61076b825461056f565b6107768282856106b6565b5f60209050601f8311600181146107a7575f8415610795578287015190505b61079f8582610724565b865550610806565b601f1984166107b58661059f565b5f5b828110156107dc578489015182556001820191506020850194506020810190506107b7565b868310156107f957848901516107f5601f891682610708565b8355505b6001600288020188555050505b505050505050565b7f456c204e756d65726f206573206d61796f7220717565203100000000000000005f82015250565b5f6108426018836104cc565b915061084d8261080e565b602082019050919050565b5f6020820190508181035f83015261086f81610836565b9050919050565b7f4e487b71000000000000000000000000000000000000000000000000000000005f52601160045260245ffd5b5f6108ad82610431565b91506108b883610431565b92508282026108c681610431565b915082820484148315176108dd576108dc610876565b5b5092915050565b7f4e487b71000000000000000000000000000000000000000000000000000000005f52601260045260245ffd5b5f61091b82610431565b915061092683610431565b925082610936576109356108e4565b5b828206905092915050565b5f61094b82610431565b915061095683610431565b925082820190508082111561096e5761096d610876565b5b9291505056fea2646970667358221220931f4e590a648bee4185a07ead47d9959348b57892e7d35ee020e95ad45e650564736f6c634300081e0033",
					"opcodes": "PUSH1 0x80 PUSH1 0x40 MSTORE CALLVALUE DUP1 ISZERO PUSH1 0xE JUMPI PUSH0 PUSH0 REVERT JUMPDEST POP CALLER PUSH0 PUSH0 PUSH2 0x100 EXP DUP2 SLOAD DUP2 PUSH20 0xFFFFFFFFFFFFFFFFFFFFFFFFFFFFFFFFFFFFFFFF MUL NOT AND SWAP1 DUP4 PUSH20 0xFFFFFFFFFFFFFFFFFFFFFFFFFFFFFFFFFFFFFFFF AND MUL OR SWAP1 SSTORE POP PUSH2 0x9AA DUP1 PUSH2 0x5B PUSH0 CODECOPY PUSH0 RETURN INVALID PUSH1 0x80 PUSH1 0x40 MSTORE CALLVALUE DUP1 ISZERO PUSH2 0xF JUMPI PUSH0 PUSH0 REVERT JUMPDEST POP PUSH1 0x4 CALLDATASIZE LT PUSH2 0x49 JUMPI PUSH0 CALLDATALOAD PUSH1 0xE0 SHR DUP1 PUSH3 0x2736B EQ PUSH2 0x4D JUMPI DUP1 PUSH4 0xC69DBB99 EQ PUSH2 0x69 JUMPI DUP1 PUSH4 0xC941202F EQ PUSH2 0x87 JUMPI DUP1 PUSH4 0xD75CBF9B EQ PUSH2 0xB7 JUMPI JUMPDEST PUSH0 PUSH0 REVERT JUMPDEST PUSH2 0x67 PUSH1 0x4 DUP1 CALLDATASIZE SUB DUP2 ADD SWAP1 PUSH2 0x62 SWAP2 SWAP1 PUSH2 0x392 JUMP JUMPDEST PUSH2 0xD5 JUMP JUMPDEST STOP JUMPDEST PUSH2 0x71 PUSH2 0xE8 JUMP JUMPDEST PUSH1 0x40 MLOAD PUSH2 0x7E SWAP2 SWAP1 PUSH2 0x418 JUMP JUMPDEST PUSH1 0x40 MLOAD DUP1 SWAP2 SUB SWAP1 RETURN JUMPDEST PUSH2 0xA1 PUSH1 0x4 DUP1 CALLDATASIZE SUB DUP2 ADD SWAP1 PUSH2 0x9C SWAP2 SWAP1 PUSH2 0x464 JUMP JUMPDEST PUSH2 0x10F JUMP JUMPDEST PUSH1 0x40 MLOAD PUSH2 0xAE SWAP2 SWAP1 PUSH2 0x4A9 JUMP JUMPDEST PUSH1 0x40 MLOAD DUP1 SWAP2 SUB SWAP1 RETURN JUMPDEST PUSH2 0xBF PUSH2 0x1B5 JUMP JUMPDEST PUSH1 0x40 MLOAD PUSH2 0xCC SWAP2 SWAP1 PUSH2 0x522 JUMP JUMPDEST PUSH1 0x40 MLOAD DUP1 SWAP2 SUB SWAP1 RETURN JUMPDEST DUP1 PUSH1 0x1 SWAP1 DUP2 PUSH2 0xE4 SWAP2 SWAP1 PUSH2 0x73F JUMP JUMPDEST POP POP JUMP JUMPDEST PUSH0 PUSH0 PUSH0 SWAP1 SLOAD SWAP1 PUSH2 0x100 EXP SWAP1 DIV PUSH20 0xFFFFFFFFFFFFFFFFFFFFFFFFFFFFFFFFFFFFFFFF AND SWAP1 POP SWAP1 JUMP JUMPDEST PUSH0 PUSH1 0x1 DUP3 GT PUSH2 0x153 JUMPI PUSH1 0x40 MLOAD PUSH32 0x8C379A000000000000000000000000000000000000000000000000000000000 DUP2 MSTORE PUSH1 0x4 ADD PUSH2 0x14A SWAP1 PUSH2 0x858 JUMP JUMPDEST PUSH1 0x40 MLOAD DUP1 SWAP2 SUB SWAP1 REVERT JUMPDEST PUSH1 0x2 DUP3 SUB PUSH2 0x164 JUMPI PUSH1 0x1 SWAP1 POP PUSH2 0x1B0 JUMP JUMPDEST PUSH0 PUSH1 0x3 SWAP1 POP JUMPDEST DUP3 DUP2 DUP3 PUSH2 0x177 SWAP2 SWAP1 PUSH2 0x8A3 JUMP JUMPDEST GT PUSH2 0x1AB JUMPI PUSH0 DUP2 DUP5 PUSH2 0x189 SWAP2 SWAP1 PUSH2 0x911 JUMP JUMPDEST SUB PUSH2 0x197 JUMPI PUSH0 SWAP2 POP POP PUSH2 0x1B0 JUMP JUMPDEST PUSH1 0x2 DUP2 PUSH2 0x1A4 SWAP2 SWAP1 PUSH2 0x941 JUMP JUMPDEST SWAP1 POP PUSH2 0x16A JUMP JUMPDEST POP PUSH0 SWAP1 POP JUMPDEST SWAP2 SWAP1 POP JUMP JUMPDEST PUSH1 0x60 PUSH1 0x1 DUP1 SLOAD PUSH2 0x1C4 SWAP1 PUSH2 0x56F JUMP JUMPDEST DUP1 PUSH1 0x1F ADD PUSH1 0x20 DUP1 SWAP2 DIV MUL PUSH1 0x20 ADD PUSH1 0x40 MLOAD SWAP1 DUP2 ADD PUSH1 0x40 MSTORE DUP1 SWAP3 SWAP2 SWAP1 DUP2 DUP2 MSTORE PUSH1 0x20 ADD DUP3 DUP1 SLOAD PUSH2 0x1F0 SWAP1 PUSH2 0x56F JUMP JUMPDEST DUP1 ISZERO PUSH2 0x23B JUMPI DUP1 PUSH1 0x1F LT PUSH2 0x212 JUMPI PUSH2 0x100 DUP1 DUP4 SLOAD DIV MUL DUP4 MSTORE SWAP2 PUSH1 0x20 ADD SWAP2 PUSH2 0x23B JUMP JUMPDEST DUP3 ADD SWAP2 SWAP1 PUSH0 MSTORE PUSH1 0x20 PUSH0 KECCAK256 SWAP1 JUMPDEST DUP2 SLOAD DUP2 MSTORE SWAP1 PUSH1 0x1 ADD SWAP1 PUSH1 0x20 ADD DUP1 DUP4 GT PUSH2 0x21E JUMPI DUP3 SWAP1 SUB PUSH1 0x1F AND DUP3 ADD SWAP2 JUMPDEST POP POP POP POP POP SWAP1 POP SWAP1 JUMP JUMPDEST PUSH0 PUSH1 0x40 MLOAD SWAP1 POP SWAP1 JUMP JUMPDEST PUSH0 PUSH0 REVERT JUMPDEST PUSH0 PUSH0 REVERT JUMPDEST PUSH0 PUSH0 REVERT JUMPDEST PUSH0 PUSH0 REVERT JUMPDEST PUSH0 PUSH1 0x1F NOT PUSH1 0x1F DUP4 ADD AND SWAP1 POP SWAP2 SWAP1 POP JUMP JUMPDEST PUSH32 0x4E487B7100000000000000000000000000000000000000000000000000000000 PUSH0 MSTORE PUSH1 0x41 PUSH1 0x4 MSTORE PUSH1 0x24 PUSH0 REVERT JUMPDEST PUSH2 0x2A4 DUP3 PUSH2 0x25E JUMP JUMPDEST DUP2 ADD DUP2 DUP2 LT PUSH8 0xFFFFFFFFFFFFFFFF DUP3 GT OR ISZERO PUSH2 0x2C3 JUMPI PUSH2 0x2C2 PUSH2 0x26E JUMP JUMPDEST JUMPDEST DUP1 PUSH1 0x40 MSTORE POP POP POP JUMP JUMPDEST PUSH0 PUSH2 0x2D5 PUSH2 0x245 JUMP JUMPDEST SWAP1 POP PUSH2 0x2E1 DUP3 DUP3 PUSH2 0x29B JUMP JUMPDEST SWAP2 SWAP1 POP JUMP JUMPDEST PUSH0 PUSH8 0xFFFFFFFFFFFFFFFF DUP3 GT ISZERO PUSH2 0x300 JUMPI PUSH2 0x2FF PUSH2 0x26E JUMP JUMPDEST JUMPDEST PUSH2 0x309 DUP3 PUSH2 0x25E JUMP JUMPDEST SWAP1 POP PUSH1 0x20 DUP2 ADD SWAP1 POP SWAP2 SWAP1 POP JUMP JUMPDEST DUP3 DUP2 DUP4 CALLDATACOPY PUSH0 DUP4 DUP4 ADD MSTORE POP POP POP JUMP JUMPDEST PUSH0 PUSH2 0x336 PUSH2 0x331 DUP5 PUSH2 0x2E6 JUMP JUMPDEST PUSH2 0x2CC JUMP JUMPDEST SWAP1 POP DUP3 DUP2 MSTORE PUSH1 0x20 DUP2 ADD DUP5 DUP5 DUP5 ADD GT ISZERO PUSH2 0x352 JUMPI PUSH2 0x351 PUSH2 0x25A JUMP JUMPDEST JUMPDEST PUSH2 0x35D DUP5 DUP3 DUP6 PUSH2 0x316 JUMP JUMPDEST POP SWAP4 SWAP3 POP POP POP JUMP JUMPDEST PUSH0 DUP3 PUSH1 0x1F DUP4 ADD SLT PUSH2 0x379 JUMPI PUSH2 0x378 PUSH2 0x256 JUMP JUMPDEST JUMPDEST DUP2 CALLDATALOAD PUSH2 0x389 DUP5 DUP3 PUSH1 0x20 DUP7 ADD PUSH2 0x324 JUMP JUMPDEST SWAP2 POP POP SWAP3 SWAP2 POP POP JUMP JUMPDEST PUSH0 PUSH1 0x20 DUP3 DUP5 SUB SLT ISZERO PUSH2 0x3A7 JUMPI PUSH2 0x3A6 PUSH2 0x24E JUMP JUMPDEST JUMPDEST PUSH0 DUP3 ADD CALLDATALOAD PUSH8 0xFFFFFFFFFFFFFFFF DUP2 GT ISZERO PUSH2 0x3C4 JUMPI PUSH2 0x3C3 PUSH2 0x252 JUMP JUMPDEST JUMPDEST PUSH2 0x3D0 DUP5 DUP3 DUP6 ADD PUSH2 0x365 JUMP JUMPDEST SWAP2 POP POP SWAP3 SWAP2 POP POP JUMP JUMPDEST PUSH0 PUSH20 0xFFFFFFFFFFFFFFFFFFFFFFFFFFFFFFFFFFFFFFFF DUP3 AND SWAP1 POP SWAP2 SWAP1 POP JUMP JUMPDEST PUSH0 PUSH2 0x402 DUP3 PUSH2 0x3D9 JUMP JUMPDEST SWAP1 POP SWAP2 SWAP1 POP JUMP JUMPDEST PUSH2 0x412 DUP2 PUSH2 0x3F8 JUMP JUMPDEST DUP3 MSTORE POP POP JUMP JUMPDEST PUSH0 PUSH1 0x20 DUP3 ADD SWAP1 POP PUSH2 0x42B PUSH0 DUP4 ADD DUP5 PUSH2 0x409 JUMP JUMPDEST SWAP3 SWAP2 POP POP JUMP JUMPDEST PUSH0 DUP2 SWAP1 POP SWAP2 SWAP1 POP JUMP JUMPDEST PUSH2 0x443 DUP2 PUSH2 0x431 JUMP JUMPDEST DUP2 EQ PUSH2 0x44D JUMPI PUSH0 PUSH0 REVERT JUMPDEST POP JUMP JUMPDEST PUSH0 DUP2 CALLDATALOAD SWAP1 POP PUSH2 0x45E DUP2 PUSH2 0x43A JUMP JUMPDEST SWAP3 SWAP2 POP POP JUMP JUMPDEST PUSH0 PUSH1 0x20 DUP3 DUP5 SUB SLT ISZERO PUSH2 0x479 JUMPI PUSH2 0x478 PUSH2 0x24E JUMP JUMPDEST JUMPDEST PUSH0 PUSH2 0x486 DUP5 DUP3 DUP6 ADD PUSH2 0x450 JUMP JUMPDEST SWAP2 POP POP SWAP3 SWAP2 POP POP JUMP JUMPDEST PUSH0 DUP2 ISZERO ISZERO SWAP1 POP SWAP2 SWAP1 POP JUMP JUMPDEST PUSH2 0x4A3 DUP2 PUSH2 0x48F JUMP JUMPDEST DUP3 MSTORE POP POP JUMP JUMPDEST PUSH0 PUSH1 0x20 DUP3 ADD SWAP1 POP PUSH2 0x4BC PUSH0 DUP4 ADD DUP5 PUSH2 0x49A JUMP JUMPDEST SWAP3 SWAP2 POP POP JUMP JUMPDEST PUSH0 DUP2 MLOAD SWAP1 POP SWAP2 SWAP1 POP JUMP JUMPDEST PUSH0 DUP3 DUP3 MSTORE PUSH1 0x20 DUP3 ADD SWAP1 POP SWAP3 SWAP2 POP POP JUMP JUMPDEST DUP3 DUP2 DUP4 MCOPY PUSH0 DUP4 DUP4 ADD MSTORE POP POP POP JUMP JUMPDEST PUSH0 PUSH2 0x4F4 DUP3 PUSH2 0x4C2 JUMP JUMPDEST PUSH2 0x4FE DUP2 DUP6 PUSH2 0x4CC JUMP JUMPDEST SWAP4 POP PUSH2 0x50E DUP2 DUP6 PUSH1 0x20 DUP7 ADD PUSH2 0x4DC JUMP JUMPDEST PUSH2 0x517 DUP2 PUSH2 0x25E JUMP JUMPDEST DUP5 ADD SWAP2 POP POP SWAP3 SWAP2 POP POP JUMP JUMPDEST PUSH0 PUSH1 0x20 DUP3 ADD SWAP1 POP DUP2 DUP2 SUB PUSH0 DUP4 ADD MSTORE PUSH2 0x53A DUP2 DUP5 PUSH2 0x4EA JUMP JUMPDEST SWAP1 POP SWAP3 SWAP2 POP POP JUMP JUMPDEST PUSH32 0x4E487B7100000000000000000000000000000000000000000000000000000000 PUSH0 MSTORE PUSH1 0x22 PUSH1 0x4 MSTORE PUSH1 0x24 PUSH0 REVERT JUMPDEST PUSH0 PUSH1 0x2 DUP3 DIV SWAP1 POP PUSH1 0x1 DUP3 AND DUP1 PUSH2 0x586 JUMPI PUSH1 0x7F DUP3 AND SWAP2 POP JUMPDEST PUSH1 0x20 DUP3 LT DUP2 SUB PUSH2 0x599 JUMPI PUSH2 0x598 PUSH2 0x542 JUMP JUMPDEST JUMPDEST POP SWAP2 SWAP1 POP JUMP JUMPDEST PUSH0 DUP2 SWAP1 POP DUP2 PUSH0 MSTORE PUSH1 0x20 PUSH0 KECCAK256 SWAP1 POP SWAP2 SWAP1 POP JUMP JUMPDEST PUSH0 PUSH1 0x20 PUSH1 0x1F DUP4 ADD DIV SWAP1 POP SWAP2 SWAP1 POP JUMP JUMPDEST PUSH0 DUP3 DUP3 SHL SWAP1 POP SWAP3 SWAP2 POP POP JUMP JUMPDEST PUSH0 PUSH1 0x8 DUP4 MUL PUSH2 0x5FB PUSH32 0xFFFFFFFFFFFFFFFFFFFFFFFFFFFFFFFFFFFFFFFFFFFFFFFFFFFFFFFFFFFFFFFF DUP3 PUSH2 0x5C0 JUMP JUMPDEST PUSH2 0x605 DUP7 DUP4 PUSH2 0x5C0 JUMP JUMPDEST SWAP6 POP DUP1 NOT DUP5 AND SWAP4 POP DUP1 DUP7 AND DUP5 OR SWAP3 POP POP POP SWAP4 SWAP3 POP POP POP JUMP JUMPDEST PUSH0 DUP2 SWAP1 POP SWAP2 SWAP1 POP JUMP JUMPDEST PUSH0 PUSH2 0x640 PUSH2 0x63B PUSH2 0x636 DUP5 PUSH2 0x431 JUMP JUMPDEST PUSH2 0x61D JUMP JUMPDEST PUSH2 0x431 JUMP JUMPDEST SWAP1 POP SWAP2 SWAP1 POP JUMP JUMPDEST PUSH0 DUP2 SWAP1 POP SWAP2 SWAP1 POP JUMP JUMPDEST PUSH2 0x659 DUP4 PUSH2 0x626 JUMP JUMPDEST PUSH2 0x66D PUSH2 0x665 DUP3 PUSH2 0x647 JUMP JUMPDEST DUP5 DUP5 SLOAD PUSH2 0x5CC JUMP JUMPDEST DUP3 SSTORE POP POP POP POP JUMP JUMPDEST PUSH0 PUSH0 SWAP1 POP SWAP1 JUMP JUMPDEST PUSH2 0x684 PUSH2 0x675 JUMP JUMPDEST PUSH2 0x68F DUP2 DUP5 DUP5 PUSH2 0x650 JUMP JUMPDEST POP POP POP JUMP JUMPDEST JUMPDEST DUP2 DUP2 LT ISZERO PUSH2 0x6B2 JUMPI PUSH2 0x6A7 PUSH0 DUP3 PUSH2 0x67C JUMP JUMPDEST PUSH1 0x1 DUP2 ADD SWAP1 POP PUSH2 0x695 JUMP JUMPDEST POP POP JUMP JUMPDEST PUSH1 0x1F DUP3 GT ISZERO PUSH2 0x6F7 JUMPI PUSH2 0x6C8 DUP2 PUSH2 0x59F JUMP JUMPDEST PUSH2 0x6D1 DUP5 PUSH2 0x5B1 JUMP JUMPDEST DUP2 ADD PUSH1 0x20 DUP6 LT ISZERO PUSH2 0x6E0 JUMPI DUP2 SWAP1 POP JUMPDEST PUSH2 0x6F4 PUSH2 0x6EC DUP6 PUSH2 0x5B1 JUMP JUMPDEST DUP4 ADD DUP3 PUSH2 0x694 JUMP JUMPDEST POP POP JUMPDEST POP POP POP JUMP JUMPDEST PUSH0 DUP3 DUP3 SHR SWAP1 POP SWAP3 SWAP2 POP POP JUMP JUMPDEST PUSH0 PUSH2 0x717 PUSH0 NOT DUP5 PUSH1 0x8 MUL PUSH2 0x6FC JUMP JUMPDEST NOT DUP1 DUP4 AND SWAP2 POP POP SWAP3 SWAP2 POP POP JUMP JUMPDEST PUSH0 PUSH2 0x72F DUP4 DUP4 PUSH2 0x708 JUMP JUMPDEST SWAP2 POP DUP3 PUSH1 0x2 MUL DUP3 OR SWAP1 POP SWAP3 SWAP2 POP POP JUMP JUMPDEST PUSH2 0x748 DUP3 PUSH2 0x4C2 JUMP JUMPDEST PUSH8 0xFFFFFFFFFFFFFFFF DUP2 GT ISZERO PUSH2 0x761 JUMPI PUSH2 0x760 PUSH2 0x26E JUMP JUMPDEST JUMPDEST PUSH2 0x76B DUP3 SLOAD PUSH2 0x56F JUMP JUMPDEST PUSH2 0x776 DUP3 DUP3 DUP6 PUSH2 0x6B6 JUMP JUMPDEST PUSH0 PUSH1 0x20 SWAP1 POP PUSH1 0x1F DUP4 GT PUSH1 0x1 DUP2 EQ PUSH2 0x7A7 JUMPI PUSH0 DUP5 ISZERO PUSH2 0x795 JUMPI DUP3 DUP8 ADD MLOAD SWAP1 POP JUMPDEST PUSH2 0x79F DUP6 DUP3 PUSH2 0x724 JUMP JUMPDEST DUP7 SSTORE POP PUSH2 0x806 JUMP JUMPDEST PUSH1 0x1F NOT DUP5 AND PUSH2 0x7B5 DUP7 PUSH2 0x59F JUMP JUMPDEST PUSH0 JUMPDEST DUP3 DUP2 LT ISZERO PUSH2 0x7DC JUMPI DUP5 DUP10 ADD MLOAD DUP3 SSTORE PUSH1 0x1 DUP3 ADD SWAP2 POP PUSH1 0x20 DUP6 ADD SWAP5 POP PUSH1 0x20 DUP2 ADD SWAP1 POP PUSH2 0x7B7 JUMP JUMPDEST DUP7 DUP4 LT ISZERO PUSH2 0x7F9 JUMPI DUP5 DUP10 ADD MLOAD PUSH2 0x7F5 PUSH1 0x1F DUP10 AND DUP3 PUSH2 0x708 JUMP JUMPDEST DUP4 SSTORE POP JUMPDEST PUSH1 0x1 PUSH1 0x2 DUP9 MUL ADD DUP9 SSTORE POP POP POP JUMPDEST POP POP POP POP POP POP JUMP JUMPDEST PUSH32 0x456C204E756D65726F206573206D61796F722071756520310000000000000000 PUSH0 DUP3 ADD MSTORE POP JUMP JUMPDEST PUSH0 PUSH2 0x842 PUSH1 0x18 DUP4 PUSH2 0x4CC JUMP JUMPDEST SWAP2 POP PUSH2 0x84D DUP3 PUSH2 0x80E JUMP JUMPDEST PUSH1 0x20 DUP3 ADD SWAP1 POP SWAP2 SWAP1 POP JUMP JUMPDEST PUSH0 PUSH1 0x20 DUP3 ADD SWAP1 POP DUP2 DUP2 SUB PUSH0 DUP4 ADD MSTORE PUSH2 0x86F DUP2 PUSH2 0x836 JUMP JUMPDEST SWAP1 POP SWAP2 SWAP1 POP JUMP JUMPDEST PUSH32 0x4E487B7100000000000000000000000000000000000000000000000000000000 PUSH0 MSTORE PUSH1 0x11 PUSH1 0x4 MSTORE PUSH1 0x24 PUSH0 REVERT JUMPDEST PUSH0 PUSH2 0x8AD DUP3 PUSH2 0x431 JUMP JUMPDEST SWAP2 POP PUSH2 0x8B8 DUP4 PUSH2 0x431 JUMP JUMPDEST SWAP3 POP DUP3 DUP3 MUL PUSH2 0x8C6 DUP2 PUSH2 0x431 JUMP JUMPDEST SWAP2 POP DUP3 DUP3 DIV DUP5 EQ DUP4 ISZERO OR PUSH2 0x8DD JUMPI PUSH2 0x8DC PUSH2 0x876 JUMP JUMPDEST JUMPDEST POP SWAP3 SWAP2 POP POP JUMP JUMPDEST PUSH32 0x4E487B7100000000000000000000000000000000000000000000000000000000 PUSH0 MSTORE PUSH1 0x12 PUSH1 0x4 MSTORE PUSH1 0x24 PUSH0 REVERT JUMPDEST PUSH0 PUSH2 0x91B DUP3 PUSH2 0x431 JUMP JUMPDEST SWAP2 POP PUSH2 0x926 DUP4 PUSH2 0x431 JUMP JUMPDEST SWAP3 POP DUP3 PUSH2 0x936 JUMPI PUSH2 0x935 PUSH2 0x8E4 JUMP JUMPDEST JUMPDEST DUP3 DUP3 MOD SWAP1 POP SWAP3 SWAP2 POP POP JUMP JUMPDEST PUSH0 PUSH2 0x94B DUP3 PUSH2 0x431 JUMP JUMPDEST SWAP2 POP PUSH2 0x956 DUP4 PUSH2 0x431 JUMP JUMPDEST SWAP3 POP DUP3 DUP3 ADD SWAP1 POP DUP1 DUP3 GT ISZERO PUSH2 0x96E JUMPI PUSH2 0x96D PUSH2 0x876 JUMP JUMPDEST JUMPDEST SWAP3 SWAP2 POP POP JUMP INVALID LOG2 PUSH5 0x6970667358 0x22 SLT KECCAK256 SWAP4 0x1F 0x4E MSIZE EXP PUSH5 0x8BEE4185A0 PUSH31 0xAD47D9959348B57892E7D35EE020E95AD45E650564736F6C634300081E0033 "
				},
				"gasEstimates": {
					"creation": {
						"codeDepositCost": "494800",
						"executionCost": "24792",
						"totalCost": "519592"
					},
					"external": {
						"esPrimo(uint256)": "infinite",
						"getNombre()": "infinite",
						"getPropietario()": "2514",
						"setNombre(string)": "infinite"
					}
				},
				"methodIdentifiers": {
					"esPrimo(uint256)": "c941202f",
					"getNombre()": "d75cbf9b",
					"getPropietario()": "c69dbb99",
					"setNombre(string)": "0002736b"
				}
			},
			"storageLayout": {
				"storage": [
					{
						"astId": 3,
						"contract": "contracts/RutaBasico.sol:RutaBasico",
						"label": "propietario",
						"offset": 0,
						"slot": "0",
						"type": "t_address"
					},
					{
						"astId": 70,
						"contract": "contracts/RutaBasico.sol:RutaBasico",
						"label": "testNombre",
						"offset": 0,
						"slot": "1",
						"type": "t_string_storage"
					}
				],
				"types": {
					"t_address": {
						"encoding": "inplace",
						"label": "address",
						"numberOfBytes": "20"
					},
					"t_string_storage": {
						"encoding": "bytes",
						"label": "string",
						"numberOfBytes": "32"
					}
				}
			},
			"userdoc": {
				"kind": "user",
				"methods": {},
				"version": 1
			}
		}
	}
}